{\rtf1\ansi\ansicpg1252\deff0\deflang1033\deflangfe1033{\fonttbl{\f0\froman\fprq2\fcharset0 Times New Roman;}}
{\*\generator Msftedit 5.41.15.1507;}\viewkind4\uc1\pard\keepn\nowidctlpar\tx6480\f0\fs20 Data: C:\\Medallion\\Data\\2022-10\\2022Oct11-1958-0001.vkd\par
Test: C:\\Medallion\\Profiles\\teltonikasshocks.vkp\par
Data stored on Oct 11, 2022 20:07:49\par
\pard\keepn\nowidctlpar          \par
Current level: 3, running at 100 %, 100 of 100 pulses\par
\b\i\fs24 End of Test\b0\i0\fs20\par
\pard\nowidctlpar {\pict\picw15000\pich10000\wmetafile8
010009000003CC74000008000608000000000400000003010800050000000201020000000500000004010D000000050000000C02DB21C832050000000B020000
00000500000004010D00000014000000FF0600000600F602000024000100020000000000C832C83202000000C8320000C8320200040000002D01000004000000
F0010000070000001604DB21C8320000000007000000FC020100000000000000040000002D01000022000000FF0600000600F602000040000300040000000000
007D007D020000001E020000007D020004001E02631E00007708AA30007D04000200631E007D0000007D0200040000002B01010004000000F001010008000000
FA0205000100000000000000040000002D010100070000001B04DB21C8320000000008000000FA0200000000000000000000040000002D01020007000000FC02
0000FFFFFF000000040000002D01030005000000040101000000050000000201020000000500000004010D00000008000000FA02000000000000000000000400
00002D010400050000001402631E7708050000001302631EAA300500000014021E0277080500000013021E02AA3008000000FA02020000000000C0C0C0000400
00002D0105000500000002010100000014000000FF0600000600F602000024000100020000000000C832C83202000000C8320000C8320200040000002D010600
04000000F0010600070000001604781EBF301E027708040000002D0104000500000002010100000014000000FF0600000600F602000024000100020000000000
C832C83202000000C8320000C8320200040000002D01060004000000F0010600070000001604DB21C83200000000050000001402631E7708050000001302B71E
7708040000002D0105000500000002010100000014000000FF0600000600F602000024000100020000000000C832C83202000000C8320000C832020004000000
2D01060004000000F0010600070000001604781EBF301E027708040000002D0104000500000002010100000014000000FF0600000600F6020000240001000200
00000000C832C83202000000C8320000C8320200040000002D01060004000000F0010600070000001604DB21C83200000000050000001402631E770805000000
1302B71E7708050000001402631E5C090500000013028D1E5C09050000001402631E400A0500000013028D1E400A050000001402631E250B0500000013028D1E
250B050000001402631E0A0C0500000013028D1E0A0C040000002D0105000500000002010100000014000000FF0600000600F602000024000100020000000000
C832C83202000000C8320000C8320200040000002D01060004000000F0010600070000001604781EBF301E027708050000001402631EEE0C050000001302631E
EE0C0500000013021E02EE0C040000002D0104000500000002010100000014000000FF0600000600F602000024000100020000000000C832C83202000000C832
0000C8320200040000002D01060004000000F0010600070000001604DB21C83200000000050000001402631EEE0C050000001302B71EEE0C050000001402631E
D30D0500000013028D1ED30D050000001402631EB80E0500000013028D1EB80E050000001402631E9D0F0500000013028D1E9D0F050000001402631E81100500
000013028D1E8110040000002D0105000500000002010100000014000000FF0600000600F602000024000100020000000000C832C83202000000C8320000C832
0200040000002D01060004000000F0010600070000001604781EBF301E027708050000001402631E6611050000001302631E66110500000013021E0266110400
00002D0104000500000002010100000014000000FF0600000600F602000024000100020000000000C832C83202000000C8320000C8320200040000002D010600
04000000F0010600070000001604DB21C83200000000050000001402631E6611050000001302B71E6611050000001402631E4B120500000013028D1E4B120500
00001402631E2F130500000013028D1E2F13050000001402631E14140500000013028D1E1414050000001402631EF9140500000013028D1EF914040000002D01
05000500000002010100000014000000FF0600000600F602000024000100020000000000C832C83202000000C8320000C8320200040000002D01060004000000
F0010600070000001604781EBF301E027708050000001402631EDD15050000001302631EDD150500000013021E02DD15040000002D0104000500000002010100
000014000000FF0600000600F602000024000100020000000000C832C83202000000C8320000C8320200040000002D01060004000000F0010600070000001604
DB21C83200000000050000001402631EDD15050000001302B71EDD15050000001402631EC2160500000013028D1EC216050000001402631EA717050000001302
8D1EA717050000001402631E8B180500000013028D1E8B18050000001402631E70190500000013028D1E7019040000002D010500050000000201010000001400
0000FF0600000600F602000024000100020000000000C832C83202000000C8320000C8320200040000002D01060004000000F0010600070000001604781EBF30
1E027708050000001402631E551A050000001302631E551A0500000013021E02551A040000002D0104000500000002010100000014000000FF0600000600F602
000024000100020000000000C832C83202000000C8320000C8320200040000002D01060004000000F0010600070000001604DB21C83200000000050000001402
631E551A050000001302B71E551A050000001402631E391B0500000013028D1E391B050000001402631E1E1C0500000013028D1E1E1C050000001402631E031D
0500000013028D1E031D050000001402631EE81D0500000013028D1EE81D040000002D0105000500000002010100000014000000FF0600000600F60200002400
0100020000000000C832C83202000000C8320000C8320200040000002D01060004000000F0010600070000001604781EBF301E027708050000001402631ECC1E
050000001302631ECC1E0500000013021E02CC1E040000002D0104000500000002010100000014000000FF0600000600F602000024000100020000000000C832
C83202000000C8320000C8320200040000002D01060004000000F0010600070000001604DB21C83200000000050000001402631ECC1E050000001302B71ECC1E
050000001402631EB11F0500000013028D1EB11F050000001402631E96200500000013028D1E9620050000001402631E7A210500000013028D1E7A2105000000
1402631E5F220500000013028D1E5F22040000002D0105000500000002010100000014000000FF0600000600F602000024000100020000000000C832C8320200
0000C8320000C8320200040000002D01060004000000F0010600070000001604781EBF301E027708050000001402631E4423050000001302631E442305000000
13021E024423040000002D0104000500000002010100000014000000FF0600000600F602000024000100020000000000C832C83202000000C8320000C8320200
040000002D01060004000000F0010600070000001604DB21C83200000000050000001402631E4423050000001302B71E4423050000001402631E282405000000
13028D1E2824050000001402631E0D250500000013028D1E0D25050000001402631EF2250500000013028D1EF225050000001402631ED6260500000013028D1E
D626040000002D0105000500000002010100000014000000FF0600000600F602000024000100020000000000C832C83202000000C8320000C832020004000000
2D01060004000000F0010600070000001604781EBF301E027708050000001402631EBB27050000001302631EBB270500000013021E02BB27040000002D010400
0500000002010100000014000000FF0600000600F602000024000100020000000000C832C83202000000C8320000C8320200040000002D01060004000000F001
0600070000001604DB21C83200000000050000001402631EBB27050000001302B71EBB27050000001402631EA0280500000013028D1EA028050000001402631E
84290500000013028D1E8429050000001402631E692A0500000013028D1E692A050000001402631E4E2B0500000013028D1E4E2B040000002D01050005000000
02010100000014000000FF0600000600F602000024000100020000000000C832C83202000000C8320000C8320200040000002D01060004000000F00106000700
00001604781EBF301E027708050000001402631E332C050000001302631E332C0500000013021E02332C040000002D0104000500000002010100000014000000
FF0600000600F602000024000100020000000000C832C83202000000C8320000C8320200040000002D01060004000000F0010600070000001604DB21C8320000
0000050000001402631E332C050000001302B71E332C050000001402631E172D0500000013028D1E172D050000001402631EFC2D0500000013028D1EFC2D0500
00001402631EE12E0500000013028D1EE12E050000001402631EC52F0500000013028D1EC52F040000002D0105000500000002010100000014000000FF060000
0600F602000024000100020000000000C832C83202000000C8320000C8320200040000002D01060004000000F0010600070000001604781EBF301E0277080400
00002D0104000500000002010100000014000000FF0600000600F602000024000100020000000000C832C83202000000C8320000C8320200040000002D010600
04000000F0010600070000001604DB21C83200000000050000001402631EAA30050000001302B71EAA3005000000040101000000050000000201010000000400
00002D01020004000000F001040004000000F00105001C000000FB02E6FE0000000000009001000000BA04100022417269616C00130070A59975174F43B4FEFF
FFFF500D0A0300000A0000000000040000002D0104000500000002010100000005000000090200000000050000002E011E000000050000002E011E0000000700
0000210502002D36C21F7708050000002E0101000000050000002E011E00000007000000210502002D34C21FEE0C050000002E0101000000050000002E011E00
000007000000210502002D32C21F6611050000002E0101000000050000002E011E00000007000000210501003069C21FDD15050000002E010100000005000000
2E011E00000007000000210501003208C21F551A050000002E0101000000050000002E011E00000007000000210501003408C21FCC1E050000002E0101000000
050000002E011E00000007000000210501003608C21F4423050000002E0101000000050000002E011E00000007000000210501003800C21FBB27050000002E01
01000000050000002E011E00000007000000210502003130C21F332C050000002E0101000000050000002E011E00000007000000210502003132C21FAA300500
00002E0101000000050000002E010100000005000000090201000000050000000201010000001C000000FB021000070000000000BC02000000BA010202225379
7374656D007722008A0100000A000600000022008A0105000000D8C11300040000002D01050004000000F0010400050000000201020000000500000004010D00
000008000000FA0200000000000000000000040000002D010400050000001402631E77080500000013021E0277080500000014021E02AA30050000001302631E
AA3008000000FA02020000000000C0C0C000040000002D0106000500000002010100000014000000FF0600000600F602000024000100020000000000C832C832
02000000C8320000C8320200040000002D01070004000000F0010700070000001604781EBF301E027708040000002D0104000500000002010100000014000000
FF0600000600F602000024000100020000000000C832C83202000000C8320000C8320200040000002D01070004000000F0010700070000001604DB21C8320000
0000050000001402631E2308050000001302631E8C08040000002D0106000500000002010100000014000000FF0600000600F602000024000100020000000000
C832C83202000000C8320000C8320200040000002D01070004000000F0010700070000001604781EBF301E027708040000002D01040005000000020101000000
14000000FF0600000600F602000024000100020000000000C832C83202000000C8320000C8320200040000002D01070004000000F0010700070000001604DB21
C83200000000050000001402631E2308050000001302631E8C08050000001402AE1D4D08050000001302AE1D8C08050000001402F91C4D08050000001302F91C
8C08050000001402441C4D08050000001302441C8C080500000014028F1B4D080500000013028F1B8C08040000002D0106000500000002010100000014000000
FF0600000600F602000024000100020000000000C832C83202000000C8320000C8320200040000002D01070004000000F0010700070000001604781EBF301E02
7708050000001402DA1A7708050000001302DA1A7708050000001302DA1AAA30040000002D0104000500000002010100000014000000FF0600000600F6020000
24000100020000000000C832C83202000000C8320000C8320200040000002D01070004000000F0010700070000001604DB21C83200000000050000001402DA1A
2308050000001302DA1A8C08050000001402251A4D08050000001302251A8C0805000000140271194D0805000000130271198C08050000001402BC184D080500
00001302BC188C0805000000140207184D0805000000130207188C08040000002D0106000500000002010100000014000000FF0600000600F602000024000100
020000000000C832C83202000000C8320000C8320200040000002D01070004000000F0010700070000001604781EBF301E027708050000001402521777080500
00001302521777080500000013025217AA30040000002D0104000500000002010100000014000000FF0600000600F602000024000100020000000000C832C832
02000000C8320000C8320200040000002D01070004000000F0010700070000001604DB21C832000000000500000014025217230805000000130252178C080500
000014029D164D080500000013029D168C08050000001402E8154D08050000001302E8158C0805000000140233154D0805000000130233158C08050000001402
7E144D080500000013027E148C08040000002D0106000500000002010100000014000000FF0600000600F602000024000100020000000000C832C83202000000
C8320000C8320200040000002D01070004000000F0010700070000001604781EBF301E027708050000001402C9137708050000001302C9137708050000001302
C913AA30040000002D0104000500000002010100000014000000FF0600000600F602000024000100020000000000C832C83202000000C8320000C83202000400
00002D01070004000000F0010700070000001604DB21C83200000000050000001402C9132308050000001302C9138C0805000000140214134D08050000001302
14138C080500000014025F124D080500000013025F128C08050000001402AA114D08050000001302AA118C08050000001402F5104D08050000001302F5108C08
040000002D0106000500000002010100000014000000FF0600000600F602000024000100020000000000C832C83202000000C8320000C8320200040000002D01
070004000000F0010700070000001604781EBF301E02770805000000140240107708050000001302401077080500000013024010AA30040000002D0104000500
000002010100000014000000FF0600000600F602000024000100020000000000C832C83202000000C8320000C8320200040000002D01070004000000F0010700
070000001604DB21C832000000000500000014024010230805000000130240108C080500000014028C0F4D080500000013028C0F8C08050000001402D70E4D08
050000001302D70E8C08050000001402220E4D08050000001302220E8C080500000014026D0D4D080500000013026D0D8C08040000002D010600050000000201
0100000014000000FF0600000600F602000024000100020000000000C832C83202000000C8320000C8320200040000002D01070004000000F001070007000000
1604781EBF301E027708050000001402B80C7708050000001302B80C7708050000001302B80CAA30040000002D0104000500000002010100000014000000FF06
00000600F602000024000100020000000000C832C83202000000C8320000C8320200040000002D01070004000000F0010700070000001604DB21C83200000000
050000001402B80C2308050000001302B80C8C08050000001402030C4D08050000001302030C8C080500000014024E0B4D080500000013024E0B8C0805000000
1402990A4D08050000001302990A8C08050000001402E4094D08050000001302E4098C08040000002D0106000500000002010100000014000000FF0600000600
F602000024000100020000000000C832C83202000000C8320000C8320200040000002D01070004000000F0010700070000001604781EBF301E02770805000000
14022F0977080500000013022F0977080500000013022F09AA30040000002D0104000500000002010100000014000000FF0600000600F6020000240001000200
00000000C832C83202000000C8320000C8320200040000002D01070004000000F0010700070000001604DB21C832000000000500000014022F09230805000000
13022F098C080500000014027A084D080500000013027A088C08050000001402C5074D08050000001302C5078C0805000000140210074D080500000013021007
8C080500000014025C064D080500000013025C068C08040000002D0106000500000002010100000014000000FF0600000600F602000024000100020000000000
C832C83202000000C8320000C8320200040000002D01070004000000F0010700070000001604781EBF301E027708050000001402A7057708050000001302A705
7708050000001302A705AA30040000002D0104000500000002010100000014000000FF0600000600F602000024000100020000000000C832C83202000000C832
0000C8320200040000002D01070004000000F0010700070000001604DB21C83200000000050000001402A7052308050000001302A7058C08050000001402F204
4D08050000001302F2048C080500000014023D044D080500000013023D048C0805000000140288034D0805000000130288038C08050000001402D3024D080500
00001302D3028C08040000002D0106000500000002010100000014000000FF0600000600F602000024000100020000000000C832C83202000000C8320000C832
0200040000002D01070004000000F0010700070000001604781EBF301E027708040000002D0104000500000002010100000014000000FF0600000600F6020000
24000100020000000000C832C83202000000C8320000C8320200040000002D01070004000000F0010700070000001604DB21C832000000000500000014021E02
23080500000013021E028C080500000004010100000005000000020101000000040000002D01020004000000F001040004000000F00106001C000000FB02E6FE
0000000000009001000000BA04100022417269616C00130070A59975174F43B4FEFFFFFF500D0A0500000A0000000000040000002D0104000500000002010100
000005000000090200000000050000002E011A000000050000002E011A00000008000000210503002D333000CC1EF907050000002E0101000000050000002E01
1A00000008000000210503002D323000431BF907050000002E0101000000050000002E011A00000008000000210503002D313000BB17F907050000002E010100
0000050000002E011A000000070000002105010030083214F907050000002E0101000000050000002E011A00000007000000210502003130A910F90705000000
2E0101000000050000002E011A00000007000000210502003230210DF907050000002E0101000000050000002E011A000000070000002105020033309809F907
050000002E0101000000050000002E011A000000070000002105020034301006F907050000002E0101000000050000002E011A00000007000000210502003530
8702F907050000002E0101000000050000002E01010000000500000009020100000005000000020101000000040000002D01050004000000F00104001C000000
FB02A5FE0000000000009001000000BA04100022417269616C00130070A59975174F43B4FEFFFFFF500D0A0600000A0000000000040000002D01040005000000
02010100000005000000090200000000050000002E0118000000050000002E01180000000B0000002105090054696D6520286D73290023219A19050000002E01
010000000500000009020100000005000000020101000000040000002D01050004000000F00104001C000000FB02A5FE0000840384039001000000BA04100022
417269616C00130070A59975174F43B4FEFFFFFF500D0A0700000A0000000000040000002D010400050000000201010000000500000009020000000005000000
2E0118000000050000002E01180000000E00000021051000416363656C65726174696F6E2028472926159105050000002E010100000005000000090201000000
05000000020101000000040000002D01050004000000F00104001C000000FB027AFE000000000000BC02000000BA04100022417269616C00130070A59975174F
43B4FEFFFFFF500D0A0800000A0000000000040000002D0104000500000002010100000005000000090200800000050000002E0118000000050000002E011800
00000C00000021050C00416363656C65726174696F6E8501BD14050000002E01010000000500000009020100000005000000020101000000040000002D010500
04000000F00104000500000004010D00000014000000FF0600000600F602000024000100020000000000C832C83202000000C8320000C8320200040000002D01
040004000000F0010400070000001604781EBF301E02770808000000FA0200001600000000FF0000040000002D01040005000000020101000000060800002503
010443E3C91352E3C91361E3C91371E3C91380E3C91390E3C9139FE3C913AEE3C913BEE3C913CDE3C913DCE3C913ECE3C913FBE3C9130AE4C9131AE4C91329E4
C91339E4C91348E4C91357E4C91367E4C91376E4C91385E4C91395E4C913A4E4C913B4E4C913C3E4C913D2E4C913E2E4C913F1E4C91300E5C91310E5C9131FE5
C9132EE5C9133EE5C9134DE5C9135DE5C9136CE5C9137BE5C9138BE5C9139AE5C913A9E5C913B9E5C913C8E5C913D8E5C913E7E5C913F6E5C91306E6C91315E6
C91324E6C91334E6C91343E6C91352E6C91362E6C91371E6C91381E6C91390E6C9139FE6C913AFE6C913BEE6C913CDE6C913DDE6C913ECE6C913FBE6C9130BE7
C9131AE7C9132AE7C91339E7C91348E7C91358E7C91367E7C91376E7C91386E7C91395E7C913A5E7C913B4E7C913C3E7C913D3E7C913E2E7C913F1E7C91301E8
C91310E8C9131FE8C9132FE8C9133EE8C9134EE8C9135DE8C9136CE8C9137CE8C9138BE8C9139AE8C913AAE8C913B9E8C913C9E8C913D8E8C913E7E8C913F7E8
C91306E9C91315E9C91325E9C91334E9C91343E9C91353E9C91362E9C91372E9C91381E9C91390E9C913A0E9C913AFE9C913BEE9C913CEE9C913DDE9C913EDE9
C913FCE9C9130BEAC9131BEAC9132AEAC91339EAC91349EAC91358EAC91367EAC91377EAC91386EAC91396EAC913A5EAC913B4EAC913C4EAC913D3EAC913E2EA
C913F2EAC91301EBC91311EBC91320EBC9132FEBC9133FEBC9134EEBC9135DEBC9136DEBC9137CEBC9138BEBC9139BEBC913AAEBC913BAEBC913C9EBC913D8EB
C913E8EBC913F7EBC91306ECC91316ECC91325ECC91335ECC91344ECC91353ECC91363ECC91372ECC91381ECC91391ECC913A0ECC913AFECC913BFECC913CEEC
B913DEECA413EDEC8F13FCEC79130CED64131BED4F132AED3A133AED251349ED101358EDFC1268EDE71277EDD31287EDBF1296EDAB12A5ED9812B5ED8412C4ED
7112D3ED5F12E3ED4C12F2ED3A1202EE281211EE171220EE061230EEF5113FEEE5114EEED5115EEEC5116DEEB6117CEEA7118CEE99119BEE8B11ABEE7D11BAEE
7011C9EE6311D9EE5711E8EE4B11F7EE3F1107EF341116EF2A1126EF201135EF161144EF0C1154EF031163EFFB1072EFF31082EFEB1091EFE410A0EFDD10B0EF
D610BFEFD010CFEFCA10DEEFC410EDEFBF10FDEFBA100CF0B6101BF0B1102BF0AD103AF0AA104AF0A61059F0A31068F0A01078F09E1087F09B1096F09910A6F0
9710B5F09610C4F09410D4F09310E3F09110F3F0901002F18F1011F18E1021F18E1030F18D103FF18C104FF18C105EF18C106EF18B107DF18B108CF18B109CF1
8B10ABF18B10BAF18B10CAF18B10D9F18A10E8F18A10F8F18A1007F28A1017F28A1026F28A1035F28A1045F28A1054F28A1063F28A1073F28A1082F28A1092F2
8A10A1F28A10B0F28A10C0F28B10CFF28B10DEF28B10EEF28B10FDF28B100CF38B101CF38C102BF38C103BF38C104AF38D1059F38D1069F38E1078F38F1087F3
901097F39110A6F39210B5F39310C5F39510D4F39610E4F39810F3F39A1002F49D1012F49F1021F4A21030F4A51040F4A8104FF4AC105FF4AF106EF4B4107DF4
B8108DF4BD109CF4C210ABF4C710BBF4CD10CAF4D310D9F4D910E9F4E010F8F4E71008F5EF1017F5F71026F5FF1036F5081145F5111154F51B1164F5251173F5
2F1183F53A1192F54511A1F55111B1F55D11C0F56A11CFF57711DFF58411EEF59211FDF5A0110DF6AF111CF6BE112CF6CD113BF6DD114AF6ED115AF6FE1169F6
0F1278F6201288F6311297F64312A7F65612B6F66812C5F67B12D5F68E12E4F6A212F3F6B51203F7C91212F7DD1221F7F21231F7061340F71B1350F730135FF7
45136EF75A137EF76F138DF784139CF79A13ACF7AF13BBF7C413CBF7CF13DAF7D713E9F7DE13F9F7E61308F8EE1317F8F61327F8FE1336F8051445F80D1455F8
151464F81D1474F8241483F82C1492F83414A2F83B14B1F84314C0F84B14D0F85314DFF85A14EFF86214FEF869140DF971141DF979142CF980143BF988144BF9
8F145AF9971469F99E1479F9A61488F9AD1498F9B414A7F9BC14B6F9C314C6F9CA14D5F9D214E4F9D914F4F9E01403FAE71412FAEE1422FAF51431FAFD1441FA
041550FA0B155FFA12156FFA19157EFA1F158DFA26159DFA2D15ACFA3415BCFA3B15CBFA4115DAFA4815EAFA4F15F9FA551508FB5C1518FB621527FB691536FB
6F1546FB751555FB7C1565FB821574FB881583FB8E1593FB9415A2FB9B15B1FBA115C1FBA715D0FBAC15E0FBB215EFFBB815FEFBBE150EFCC4151DFCC9152CFC
CF153CFCD5154BFCDA155AFCE0156AFCE51579FCEA1589FCF01598FCF515A7FCFA15B7FCFF15C6FC0416D5FC0916E5FC0E16F4FC131604FD181613FD1D1622FD
221632FD261641FD2B1650FD2F1660FD34166FFD38167EFD3D168EFD41169DFD4616ADFD4A16BCFD4E16CBFD5216DBFD5616EAFD5A16F9FD5E1609FE621618FE
661628FE6A1637FE6D1646FE711656FE751665FE781674FE7C1684FE7F1693FE8316A2FE8616B2FE8916C1FE8D16D1FE9016E0FE9316EFFE9616FFFE99160EFF
9C161DFF9F162DFFA2163CFFA5164BFFA7165BFFAA166AFFAD167AFFAF1689FFB21698FFB416A8FFB716B7FFB916C6FFBC16D6FFBE16E5FFC016F5FFC2160300
C5161200C7162200C9163100CB164000CD165000CF165F00D1166E00D3167E00D4168D00D6169D00D816AC00D916BB00DB16CB00DD16DA00DE16E900E016F900
E1160801E3161801E4162701E5163601E7164601E8165501E9166401EA167401EC168301ED169201EE16A201EF16B101F016C101F116D001F216DF01F316EF01
F416FE01F5160D02F6161D02F6162C02F7163C02F8164B02F9165A02F9166A02FA167902FB168802FB169802FC16A702FD16B602FD16C602FE16D502FE16E502
FF16F402FF16030300171303001722030017310301174103011750030217600302176F0302177E0303178E0303179D030317AC030317BC030417CB030417DA03
0417EA030417F903051709040517180405172704051737040517460405175504061765040617740406178404061793040617A2040617B2040617C1040617D004
0617E0040617EF040617FE0406170E0507171D0507172D0507173C0507174B0507175B0507176A050717790507178905071798050717A7050717B7050717C605
0717D6050717E5050717F4050717040607171306071722060717320607174106071751060717600607176F0607177F0607178E0607179D060717AD060717BC06
0717CB060717DB060717EA060717FA06071709070717180707172807071737070717460707175607071765070717750707178407071793070717A3070717B207
0717C1070717D1070717E0070717EF070717FF0707170E0807171E0807172D0807173C0807174C0807175B0807176A0807177A0807178908071799080617A808
0617B7080617C7080617D6080617E5080617F508061704090617130906172309061732090617420906175109051760090517700905177F0905178E0905179E09
0517AD090417BD090417CC090417DB090417EB090317FA090317090A0317190A0317280A0217370A0217470A0217560A0117660A0117750A0117840A0017940A
0017A30AFF16B20AFF16C20AFE16D10AFE16E10AFD16F00AFD16FF0AFC160F0BFC161E0BFB162D0BFA163D0BFA164C0BF9165B0BF8166B0BF7167A0BF7168A0B
F616990BF516A80BF416B80BF316C70BF216D60BF116E60BF016F50BEF16040CEE16140CED16230CEC16330CEB16420CEA16510CE816610CE716700CE6167F0C
E4168F0CE3169E0CE216AE0CE016BD0CDF16CC0CDD16DC0CDB16EB0CDA16FA0CD8160A0DD616190DD516280DD316380DD116470DCF16570DCD16660DCB16750D
C916850DC716940DC516A30DC316B30DC116C20DBE16D20DBC16E10DBA16F00DB716000EB5160F0EB2161E0EB0162E0EAD163D0EAB164C0EA8165C0EA5166B0E
A2167B0EA0168A0E9D16990E9A16A90E9716B80E9416C70E9016D70E8D16E60E8A16F60E8716050F8316140F8016240F7D16330F7916420F7616520F7216610F
6E16700F6A16800F67168F0F63169F0F5F16AE0F5B16BD0F5716CD0F5316DC0F4F16EB0F4B16FB0F46160A1042161A103E162910391638103516481030165710
2C16661027167610231685101E1694101916A4101416B3100F16C3100A16D2100516E1100016F110FB150011F6150F11F1151F11EB152E11E6153E11E1154D11
DB155C11D6156C11D0157B11CA158A11C5159A11BF15A911B915B811B415C811AE15D711A815E711A215F6119C15051296151512901524128915331283154312
7D15521277156112701571126A158012641590125D159F125715AE125015BE124915CD124315DC123C15EC123515FB122E150B1328151A13211529131A153913
131548130C15571305156713FE147613F7148513F0149513E914A413E214B413DA14C313D314D213CC14E213C514F113BD140014B6141014AE141F14A7142F14
A0143E1498144D1491145D1489146C1482147B147A148B1473149A146B14A9146314B9145C14C8145414D8144C14E7144514F6143D140615351415152E142415
261434151E144315161453150F14621507147115FF138115F7139015F0139F15E813AF15E013BE15D813CD15D013DD15C913EC15A213FC157B130B1654131A16
2D132A1607133916E0124816B9125816931267166C127716461286161F129516F911A516D311B416AD11C3168711D3166111E2163B11F11615110117F0101017
CB102017A5102F1780103E175B104E1737105D1712106C17EE0F7C17CA0F8B17A60F9B17820FAA175E0FB9173B0FC917180FD817F50EE717D20EF717B00E0618
8E0E15186C0E25184B0E3418290E4418080E5318E80D6218C70D7218A70D8118870D9018680DA018490DAF182A0DBE180B0DCE18ED0CDD18CF0CED18B20CFC18
950C0B19780C1B195B0C2A193F0C3919240C4919090C5819EE0B6819D30B7719B90B86199F0B9619860BA5196D0BB419550BC4193D0BD319250BE2190E0BF219
F80A011AE10A111ACC0A201AB60A2F1AA10A3F1A8D0A4E1A790A5D1A660A6D1A530A7C1A400A8C1A2E0A9B1A1C0AAA1A0B0ABA1AFB09C91AEB09D81ADB09E81A
CC09F71ABD09061BAF09161BA209251B9509351B8809441B7C09531B7009631B6509721B5B09811B5109911B4809A01B3F09B01B3609BF1B2E09CE1B2709DE1B
2009ED1B1A09FC1B14090C1C0F091B1C0B092A1C07093A1C0309491C0009591CFE08681CFC08771CFA08871CFA08961CF908A51CFA08B51CFA08C41CFC08D41C
FE08E31C0009F21C0309021D0709111D0B09201D0F09301D14093F1D1A094E1D20095E1D27096D1D2E097D1D36098C1D3F099B1D4809AB1D5109BA1D5B09C91D
6509D91D7009E81D7C09F81D8809071E9509161EA209261EAF09351EBD09441ECC09541EDB09631EEB09721EFB09821E0B0A911E1C0AA11E2E0AB01E400ABF1E
530ACF1E660ADE1E790AED1E8D0AFD1EA10A0C1FB60A1B1FCC0A2B1FE10A3A1FF80A4A1F0E0B591F250B681F3D0B781F550B871F6D0B961F860BA61F9F0BB51F
B90BC51FD30BD41FEE0BE31F090CF31F240C02203F0C11205B0C2120780C3020950C3F20B20C4F20CF0C5E20ED0C6E200B0D7D202A0D8C20490D9C20680DAB20
870DBA20A70DF006000025037603BA20A70DCA20C70DD920E80DE920080EF820290E07214B0E17216C0E26218E0E3521B00E4521D20E5421F50E6321180F7321
3B0F82215E0F9221820FA121A60FB021CA0FC021EE0FCF211210DE213710EE215B10FD2180100D22A5101C22CB102B22F0103B2215114A223B11592261116922
87117822AD118722D3119722F911A6221F12B6224612C5226C12D4229312E422B912F322E0120223071312232D132123541331237B134023A2134F23C9135F23
D7136E23DE137D23E6138D23EE139C23F613AB23FD13BB230514CA230D14DA231514E9231D14F823241408242C141724341426243B143624431445244B145424
521464245A14732462148324691492247114A1247814B1248014C0248814CF248F14DF249714EE249E14FE24A5140D25AD141C25B4142C25BC143B25C3144A25
CA145A25D2146925D9147825E0148825E7149725EE14A725F514B625FC14C5250415D5250B15E4251215F325181503261F151226261522262D15312634154026
3B15502641155F2648156E264F157E2655158D265C159C266215AC266915BB266F15CB267515DA267C15E9268215F926881508278E151727941527279A153627
A1154627A6155527AC156427B2157427B8158327BE159227C415A227C915B127CF15C027D415D027DA15DF27DF15EF27E515FE27EA150D28F0151D28F5152C28
FA153B28FF154B2804165A2809166A280E16792813168828181698281D16A7282216B6282616C6282B16D5282F16E4283416F428381603293D16132941162229
451631294A1641294E16502952165F2956166F295A167E295E168E2962169D296616AC296A16BC296D16CB297116DA297516EA297816F9297C16082A7F16182A
8316272A8616372A8916462A8D16552A9016652A9316742A9616832A9916932A9C16A22A9F16B12AA216C12AA516D02AA716E02AAA16EF2AAD16FE2AAF160E2B
B2161D2BB4162C2BB7163C2BB9164B2BBC165B2BBE166A2BC016792BC216892BC516982BC716A72BC916B72BCB16C62BCD16D52BCF16E52BD116F42BD316042C
D416132CD616222CD816322CD916412CDB16502CDD16602CDE166F2CE0167F2CE1168E2CE3169D2CE416AD2CE516BC2CE716CB2CE816DB2CE916EA2CEA16F92C
EC16092DED16182DEE16282DEF16372DF016462DF116562DF216652DF316742DF416842DF516932DF616A32DF616B22DF716C12DF816D12DF916E02DF916EF2D
FA16FF2DFB160E2EFB161D2EFC162D2EFD163C2EFD164C2EFE165B2EFE166A2EFF167A2EFF16892E0017982E0017A82E0017B72E0117C72E0117D62E0217E52E
0217F52E0217042F0317132F0317232F0317322F0317412F0417512F0417602F0417702F04177F2F05178E2F05179E2F0517AD2F0517BC2F0517CC2F0517DB2F
0617EB2F0617FA2F061709300617193006172830061737300617473006175630061765300617753006178430061794300617A3300717B2300717C2300717D130
0717E0300717F0300717FF3007170E3107171E3107172D3107173D3107174C3107175B3107176B3107177A3107178931071799310717A8310717B8310717C731
0717D6310717E6310717F531071704320717143207172332071732320717423207175132071761320717703207177F3207178F3207179E320717AD320717BD32
0717CC320717DC320717EB320717FA3207170A330717193307172833071738330717473307175633071766330717753307178533071794330717A3330717B333
0717C2330717D1330717E1330717F0330717003407170F3407171E3406172E3406173D3406174C3406175C3406176B3406177A3406178A34061799340617A934
0617B8340617C7340617D7340517E6340517F53405170535051714350517243505173335041742350417523504176135041770350317803503178F3503179E35
0317AE350217BD350217CD350217DC350117EB350117FB3501170A360017193600172936FF163836FF164836FE165736FE166636FD167636FD168536FC169436
FC16A436FB16B336FA16C236FA16D236F916E136F816F136F7160037F7160F37F6161F37F5162E37F4163D37F3164D37F2165C37F1166B37F0167B37EF168A37
EE169A37ED16A937EC16B837EB16C837EA16D737E816E637E716F637E6160538E4161538E3162438E2163338E0164338DF165238DD166138DB167138DA168038
D8168F38D6169F38D516AE38D316BE38D116CD38CF16DC38CD16EC38CB16FB38C9160A39C7161A39C5162939C3163939C1164839BE165739BC166739BA167639
B7168539B5169539B216A439B016B339AD16C339AB16D239A816E239A516F139A216003AA016103A9D161F3A9A162E3A97163E3A94164D3A90165D3A8D166C3A
8A167B3A87168B3A83169A3A8016A93A7D16B93A7916C83A7616D73A7216E73A6E16F63A6B16063B6716153B6316243B5F16343B5B16433B5716523B5316623B
4F16713B4B16813B4616903B42169F3B3E16AF3B3916BE3B3516CD3B3016DD3B2C16EC3B2716FB3B23160B3C1E161A3C19162A3C1416393C0F16483C0A16583C
0516673C0016763CFB15863CF615953CF115A53CEB15B43CE615C33CE115D33CDB15E23CD615F13CD015013DCB15103DC5151F3DBF152F3DB9153E3DB4154E3D
AE155D3DA8156C3DA2157C3D9C158B3D96159A3D9015AA3D8A15B93D8315C83D7D15D83D7715E73D7015F73D6A15063E6415153E5D15253E5715343E5015433E
4915533E4315623E3C15723E3515813E2F15903E2815A03E2115AF3E1A15BE3E1315CE3E0C15DD3E0515EC3EFE14FC3EF7140B3FF0141B3FE9142A3FE214393F
DA14493FD314583FCC14673FC514773FBD14863FB614963FAF14A53FA714B43FA014C43F9814D33F9114E23F8914F23F821401407A141040731420406B142F40
63143F405C144E4054145D404C146D4045147C403D148B4035149B402E14AA402614BA401E14C9401714D8400F14E8400714F740FF130641F7131641F0132541
E8133441E0134441D8135341D0136341C9137241B31381419E1391418913A0417313AF415E13BF414913CE413413DE411F13ED410B13FC41F6120C42E2121B42
CE122A42BA123A42A6124942921258427F1268426C1277425A128742471296423512A5422412B5421212C4420112D342F111E342E011F242D0110243C1111143
B2112043A311304395113F4387114E4379115E436C116D4360117C4354118C4348119B433C11AB433111BA432711C9431D11D9431311E8430A11F74301110744
F9101644F1102544E9103544E2104444DB105444D4106344CE107244C8108244C3109144BE10A044B910B044B410BF44B010CF44AC10DE44A910ED44A610FD44
A3100C45A0101B459D102B459B103A459910494597105945951068459410784592108745911096459010A6458F10B5458E10C4458D10D4458D10E3458C10F345
8C1002468C1011468B1021468B1030468B103F468B104F468B105E468B106D468A107D468A108C468A109C468A10AB468A10BA468A10CA468A10D9468A10E846
8A10F8468A1007478A1017478A1026478A1035478A1045478A1054478A1063478B1073478B1082478B1091478B10A1478B10B0478B10C0478C10CF478C10DE47
8C10EE478D10FD478D100C488E101C488F102B4890103B4891104A4892105948941069489510784897108748991097489B10A6489D10B548A010C548A310D448
A610E448A910F348AD100249B1101249B5102149B9103049BE104049C3104F49C9105E49CE106E49D5107D49DB108D49E2109C49E910AB49F110BB49F910CA49
0211D9490A11E9491411F8491D11084A2811174A3211264A3D11364A4811454A5411544A6111644A6D11734A7A11824A8811924A9611A14AA411B14AB311C04A
C211CF4AD111DF4AE111EE4AF211FD4A02120D4B13121C4B25122C4B36123B4B48124A4B5B125A4B6D12694B8012784B9412884BA712974BBB12A64BCF12B64B
E312C54BF712D54B0C13E44B2113F34B3513034C4A13124C6013214C7513314C8A13404C9F13504CB5135F4CC9136E4CC9137E4CC9138D4CC9139C4CC913AC4C
C913BB4CC913CA4CC913DA4CC913E94CC913F94CC913084DC913174DC913274DC913364DC913454DC913554DC913644DC913744DC913834DC913924DC913A24D
C913B14DC913C04DC913D04DC913DF4DC913EE4DC913FE4DC9130D4EC9131D4EC913204EC913204EC913204EC913204EC913204EC913204EC913204EC913204E
C913204EC913204EC913204EC913204EC913204EC913204EC913204EC913204EC913204EC913204EC913204EC913204EC913204EC913204EC913204EC913204E
C913204EC913204EC913204EC913204EC913204EC913204EC913204EC913204EC913204EC913204EC913204EC913204EC913204EC913204EC913204EC913204E
C913204EC913204EC913204EC913204EC913204EC913204EC913204EC913204EC913204EC913204EC913204EC913204EC913204EC913204EC913204EC913204E
C913204EC913204EC913204EC913204EC913204EC913204EC913204EC913204EC913204EC913204EC913204EC913204EC913204EC913204EC913204EC913204E
C913204EC913204EC913204EC913204EC913204EC913204EC913204EC913204EC913204EC913204EC913204EC913204EC913204EC913204EC913204EC913204E
C913204EC913204EC913204EC913204EC913204EC913204EC913204EC913204EC913204EC913204EC913204EC913204EC913204EC913204EC913204EC913204E
C913204EC913204EC913204EC913204EC913204EC913204EC913204EC913204EC913204EC913204EC913204EC913204EC913204EC913204EC913204EC913204E
C913204EC913204EC913204EC913204EC913204EC913204EC913204EC913204EC913204EC91305000000020101000000040000002D01020004000000F0010400
0500000004010100000014000000FF0600000600F602000024000100020000000000C832C83202000000C8320000C8320200040000002D01040004000000F001
0400070000001604DB21C832000000000500000004010D00000014000000FF0600000600F602000024000100020000000000C832C83202000000C8320000C832
0200040000002D01040004000000F0010400070000001604781EBF301E02770808000000FA020000160000000000FF00040000002D0104000500000002010100
0000060800002503010443E3C11352E3C21361E3C31371E3C41380E3C51390E3C5139FE3C613AEE3C713BEE3C813CDE3C913DCE3C913ECE3CA13FBE3CB130AE4
CB131AE4CB1329E4CC1339E4CC1348E4CC1357E4CC1367E4CC1376E4CC1385E4CC1395E4CC13A4E4CC13B4E4CC13C3E4CB13D2E4CB13E2E4CA13F1E4CA1300E5
CA1310E5C9131FE5C9132EE5C8133EE5C8134DE5C7135DE5C7136CE5C7137BE5C7138BE5C7139AE5C613A9E5C613B9E5C713C8E5C713D8E5C713E7E5C713F6E5
C71306E6C81315E6C81324E6C81334E6C91343E6C91352E6CA1362E6CA1371E6CA1381E6CB1390E6CB139FE6CB13AFE6CC13BEE6CC13CDE6CC13DDE6CC13ECE6
CC13FBE6CC130BE7CC131AE7CC132AE7CB1339E7CB1348E7CB1358E7CA1367E7CA1376E7C91386E7C91395E7C813A5E7C813B4E7C713C3E7C713D3E7C713E2E7
C613F1E7C61301E8C61310E8C6131FE8C6132FE8C6133EE8C6134EE8C6135DE8C6136CE8C7137CE8C7138BE8C8139AE8C813AAE8C913B9E8CA13C9E8CA13D8E8
CB13E7E8CC13F7E8CC1306E9CD1315E9CE1325E9CE1334E9CF1343E9CF1353E9CF1362E9CF1372E9CF1381E9CF1390E9CF13A0E9CF13AFE9CE13BEE9CD13CEE9
CD13DDE9CC13EDE9CB13FCE9CA130BEAC9131BEAC8132AEAC71339EAC61349EAC51358EAC41367EAC31377EAC21386EAC21396EAC113A5EAC113B4EAC113C4EA
C113D3EAC113E2EAC213F2EAC31301EBC41311EBC51320EBC6132FEBC8133FEBCA134EEBCB135DEBCD136DEBCF137CEBD1138BEBD3139BEBD513AAEBD713BAEB
D813C9EBDA13D8EBDB13E8EBDB13F7EBDB1306ECDB1316ECDA1325ECD81335ECD61344ECD31353ECCF1363ECCA1372ECC51381ECBE1391ECB713A0ECAF13AFEC
A613BFEC9C13CEEC9113DEEC8513EDEC7813FCEC6A130CED5C131BED4C132AED3C133AED2B1349ED1A1358ED081368EDF51277EDE21287EDCF1296EDBB12A5ED
A712B5ED9312C4ED7F12D3ED6B12E3ED5712F2ED431202EE301211EE1D1220EE0A1230EEF7113FEEE5114EEED3115EEEC2116DEEB2117CEEA2118CEE92119BEE
8311ABEE7511BAEE6811C9EE5B11D9EE4F11E8EE4311F7EE381107EF2D1116EF231126EF1A1135EF111144EF091154EF011163EFF91072EFF21082EFEB1091EF
E510A0EFDF10B0EFD910BFEFD310CFEFCE10DEEFC910EDEFC410FDEFBF100CF0BB101BF0B7102BF0B3103AF0AF104AF0AB1059F0A81068F0A51078F0A21087F0
9F1096F09C10A6F09A10B5F09710C4F09510D4F09310E3F09210F3F0901002F18F1011F18E1021F18D1030F18C103FF18B104FF18B105EF18B106EF18B107DF1
8B108CF18B109CF18B10ABF18B10BAF18B10CAF18C10D9F18C10E8F18D10F8F18D1007F28D1017F28E1026F28E1035F28E1045F28F1054F28F1063F28F1073F2
8F1082F28F1092F28F10A1F28F10B0F28F10C0F28F10CFF28F10DEF28E10EEF28E10FDF28E100CF38E101CF38E102BF38E103BF38E104AF38E1059F38F1069F3
8F1078F3901087F3911097F39210A6F39310B5F39410C5F39610D4F39810E4F39A10F3F39C1002F49E1012F4A11021F4A41030F4A81040F4AB104FF4AF105FF4
B3106EF4B7107DF4BC108DF4C1109CF4C610ABF4CB10BBF4D110CAF4D710D9F4DD10E9F4E410F8F4EA1008F5F21017F5F91026F5011136F5091145F5121154F5
1B1164F5251173F52F1183F5391192F54411A1F55011B1F55B11C0F56811CFF57511DFF58211EEF59011FDF59F110DF6AE111CF6BD112CF6CD113BF6DE114AF6
EF115AF6011269F6121278F6251288F6371297F64A12A7F65E12B6F67112C5F68512D5F69812E4F6AC12F3F6C01203F7D41212F7E71221F7FB1231F70E1340F7
211350F734135FF746136EF758137EF769138DF77A139CF78A13ACF79A13BBF7A913CBF7B813DAF7C613E9F7D313F9F7E01308F8EC1317F8F81327F8031436F8
0D1445F8171455F8201464F8291474F8311483F8391492F84114A2F84814B1F84F14C0F85514D0F85C14DFF86214EFF86814FEF86F140DF975141DF97B142CF9
81143BF987144BF98D145AF9941469F99A1479F9A11488F9A81498F9AF14A7F9B614B6F9BD14C6F9C514D5F9CC14E4F9D414F4F9DC1403FAE41412FAEC1422FA
F41431FAFC1441FA041550FA0C155FFA14156FFA1C157EFA23158DFA2B159DFA3315ACFA3A15BCFA4215CBFA4915DAFA5015EAFA5715F9FA5D1508FB641518FB
6A1527FB711536FB771546FB7D1555FB821565FB881574FB8E1583FB931593FB9815A2FB9E15B1FBA315C1FBA815D0FBAE15E0FBB315EFFBB815FEFBBD150EFC
C3151DFCC8152CFCCE153CFCD3154BFCD8155AFCDE156AFCE41579FCE91589FCEF1598FCF515A7FCFA15B7FC0016C6FC0616D5FC0B16E5FC1116F4FC161604FD
1C1613FD211622FD271632FD2C1641FD311650FD361660FD3B166FFD3F167EFD44168EFD48169DFD4C16ADFD5116BCFD5416CBFD5816DBFD5C16EAFD5F16F9FD
631609FE661618FE691628FE6C1637FE6F1646FE721656FE751665FE781674FE7B1684FE7E1693FE8116A2FE8316B2FE8616C1FE8916D1FE8C16E0FE8F16EFFE
9216FFFE95160EFF97161DFF9A162DFF9D163CFFA0164BFFA3165BFFA6166AFFA9167AFFAC1689FFAF1698FFB216A8FFB516B7FFB816C6FFBA16D6FFBD16E5FF
C016F5FFC2160300C4161200C6162200C9163100CB164000CC165000CE165F00D0166E00D2167E00D3168D00D4169D00D616AC00D716BB00D816CB00D916DA00
DA16E900DB16F900DC160801DD161801DE162701DF163601E0164601E1165501E2166401E3167401E4168301E5169201E716A201E816B101E916C101EA16D001
EC16DF01ED16EF01EF16FE01F0160D02F1161D02F3162C02F4163C02F6164B02F7165A02F8166A02FA167902FB168802FC169802FD16A702FE16B602FF16C602
0017D5020017E5020117F4020117030302171303021722030217310303174103031750030317600303176F0303177E0303178E0303179D030317AC030317BC03
0217CB030217DA030217EA030217F903021709040317180403172704031737040317460404175504041765040417740405178404051793040617A2040617B204
0717C1040817D0040817E0040917EF040A17FE040A170E050B171D050B172D050C173C050C174B050C175B050D176A050D1779050D1789050D1798050D17A705
0D17B7050C17C6050C17D6050C17E5050B17F4050B1704060A1713060A1722060917320609174106081751060817600607176F0607177F0606178E0606179D06
0617AD060517BC060517CB060517DB060517EA060517FA0605170907051718070517280706173707061746070617560707176507071775070717840708179307
0817A3070917B2070917C1070917D1070A17E0070A17EF070A17FF070A170E080B171E080B172D080A173C080A174C080A175B080A176A080A177A0809178908
091799080817A8080817B7080717C7080717D6080617E5080517F508051704090417130904172309031732090317420903175109021760090217700902177F09
02178E0901179E090117AD090117BD090217CC090217DB090217EB090217FA090217090A0217190A0317280A0317370A0317470A0317560A0317660A0317750A
0317840A0317940A0317A30A0217B20A0217C20A0117D10A0117E10A0017F00AFF16FF0AFE160F0BFE161E0BFC162D0BFB163D0BFA164C0BF9165B0BF8166B0B
F6167A0BF5168A0BF416990BF216A80BF116B80BF016C70BEE16D60BED16E60BEC16F50BEB16040CEA16140CE916230CE816330CE716420CE616510CE516610C
E416700CE3167F0CE2168F0CE1169E0CE116AE0CE016BD0CDF16CC0CDE16DC0CDD16EB0CDC16FA0CDB160A0DD916190DD816280DD716380DD516470DD316570D
D116660DCF16750DCD16850DCB16940DC816A30DC516B30DC316C20DC016D20DBD16E10DBA16F00DB616000EB3160F0EB0161E0EAC162E0EA9163D0EA6164C0E
A2165C0E9F166B0E9C167B0E98168A0E9516990E9216A90E8F16B80E8C16C70E8916D70E8616E60E8316F60E8016050F7E16140F7B16240F7816330F7616420F
7316520F7016610F6E16700F6B16800F68168F0F65169F0F6216AE0F5F16BD0F5B16CD0F5816DC0F5416EB0F5016FB0F4C160A1047161A10431629103E163810
39164810341657102F1666102A167610241685101E1694101816A4101316B3100D16C3100716D2100016E110FA15F110F4150011EE150F11E9151F11E3152E11
DD153E11D7154D11D2155C11CC156C11C7157B11C2158A11BD159A11B815A911B315B811AE15C811AA15D711A515E711A015F6119C1505129715151292152412
8E15331289154312831552127E15611279157112731580126D15901267159F126115AE125A15BE125315CD124C15DC124415EC123C15FB1234150B132C151A13
241529131B153913121548130A15571301156713F8147613EF148513E6149513DD14A413D514B413CC14C313C414D213BC14E213B414F113AD140014A6141014
9F141F1499142F1493143E148D144D1487145D1482146C147D147B1478148B1473149A146F14A9146A14B9146514C8146014D8145B14E7145514F6144F140615
49141515421424153A14341531144315281453151D1462151214711505148115F7139015E8139F15D813AF15C613BE15B213CD159E13DD158813EC157013FC15
57130B163D131A1621132A1604133916E6124816C6125816A612671684127716611286163D1295161812A516F311B416CD11C316A611D3167F11E2165811F116
3011011709111017E1102017B9102F1791103E1769104E1742105D171B106C17F40F7C17CE0F8B17A80F9B17820FAA175D0FB917390FC917150FD817F10EE717
CE0EF717AC0E06188A0E1518680E2518470E3418270E4418070E5318E70D6218C70D7218A80D8118890D90186B0DA0184D0DAF182F0DBE18110DCE18F30CDD18
D60CED18B90CFC189C0C0B197F0C1B19630C2A19460C39192A0C49190E0C5819F30B6819D80B7719BD0B8619A20B9619880BA5196E0BB419540BC4193B0BD319
230BE2190A0BF219F30A011ADB0A111AC50A201AAF0A2F1A990A3F1A840A4E1A700A5D1A5C0A6D1A480A7C1A360A8C1A240A9B1A120AAA1A010ABA1AF109C91A
E109D81AD209E81AC309F71AB509061BA709161B9A09251B8D09351B8109441B7509531B6A09631B5F09721B5509811B4B09911B4209A01B3909B01B3109BF1B
2909CE1B2209DE1B1B09ED1B1509FC1B0F090C1C0A091B1C05092A1C01093A1CFD08491CFA08591CF708681CF508771CF408871CF308961CF308A51CF308B51C
F408C41CF608D41CF808E31CFB08F21CFE08021D0209111D0609201D0B09301D11093F1D17094E1D1D095E1D25096D1D2C097D1D34098C1D3D099B1D4609AB1D
4F09BA1D5909C91D6409D91D6F09E81D7A09F81D8609071E9209161E9F09261EAC09351EBA09441EC809541ED709631EE609721EF609821E060A911E170AA11E
280AB01E3A0ABF1E4D0ACF1E600ADE1E730AED1E870AFD1E9C0A0C1FB10A1B1FC70A2B1FDD0A3A1FF40A4A1F0B0B591F230B681F3B0B781F540B871F6D0B961F
870BA61FA10BB51FBB0BC51FD60BD41FF10BE31F0C0CF31F280C0220440C1120600C21207D0C3020990C3F20B60C4F20D30C5E20F10C6E200E0D7D202C0D8C20
4A0D9C20680DAB20870DBA20A50DF006000025037603BA20A50DCA20C40DD920E40DE920030EF820230E0721440E1721640E2621860E3521A70E4521C90E5421
EC0E63210F0F7321330F8221570F92217B0FA121A00FB021C60FC021EC0FCF211210DE213910EE216010FD2187100D22AE101C22D6102B22FD103B2225114A22
4D115922741169229B117822C2118722E81197220E12A6223312B6225712C5227B12D4229D12E422BF12F322DF120223FF1212231D1321233913312355134023
6F134F2388135F239F136E23B5137D23C9138D23DC139C23EE13AB23FE13BB230D14CA231B14DA232714E9233214F8233D140824461417244E14262456143624
5D14452463145424691464246E14732473148324781492247C14A1248114B1248514C0248A14CF248E14DF249314EE249814FE249D140D25A2141C25A8142C25
AE143B25B5144A25BB145A25C2146925CA147825D1148825D9149725E114A725E914B625F214C525FA14D5250315E4250C15F325141503261D15122626152226
2E153126361540263E15502646155F264E156E2656157E265D158D2664159C266B15AC267115BB267715CB267D15DA268315E9268915F9268E15082793151727
981527279D153627A2154627A7155527AC156427B0157427B5158327BA159227BF15A227C415B127C915C027CE15D027D315DF27D815EF27DE15FE27E4150D28
E9151D28EF152C28F5153B28FB154B2801165A2807166A280D16792813168828191698281F16A7282416B6282A16C6283016D5283516E4283B16F42840160329
451613294A1622294F16312953164129571650295B165F295F166F2963167E2966168E296A169D296D16AC297016BC297316CB297616DA297816EA297B16F929
7D16082A8016182A8316272A8516372A8816462A8A16552A8D16652A8F16742A9216832A9516932A9816A22A9B16B12A9D16C12AA016D02AA316E02AA716EF2A
AA16FE2AAD160E2BB0161D2BB3162C2BB6163C2BB9164B2BBC165B2BBF166A2BC116792BC416892BC716982BC916A72BCC16B72BCE16C62BD016D52BD216E52B
D416F42BD516042CD716132CD816222CD916322CDA16412CDC16502CDC16602CDD166F2CDE167F2CDF168E2CDF169D2CE016AD2CE116BC2CE116CB2CE216DB2C
E316EA2CE316F92CE416092DE516182DE616282DE616372DE716462DE816562DE916652DEA16742DEC16842DED16932DEE16A32DEF16B22DF016C12DF216D12D
F316E02DF416EF2DF516FF2DF7160E2EF8161D2EF9162D2EFA163C2EFB164C2EFC165B2EFD166A2EFE167A2EFE16892EFF16982EFF16A82E0017B72E0017C72E
0017D62E0117E52E0117F52E0117042F0117132F0117232F0117322F0117412F0117512F0117602F0117702F01177F2F01178E2F01179E2F0117AD2F0117BC2F
0117CC2F0217DB2F0217EB2F0217FA2F031709300317193004172830041737300517473006175630061765300717753007178430081794300917A3300917B230
0A17C2300A17D1300A17E0300B17F0300B17FF300B170E310B171E310C172D310C173D310B174C310B175B310B176B310B177A310B1789310A1799310A17A831
0A17B8310917C7310917D6310817E6310817F531081704320717143207172332071732320717423206175132061761320617703206177F3206178F3207179E32
0717AD320717BD320717CC320817DC320817EB320817FA3209170A33091719330A1728330A1738330A1747330B1756330B1766330B1775330C1785330C179433
0C17A3330C17B3330C17C2330C17D1330C17E1330B17F0330B1700340B170F340A171E340A172E3409173D3409174C3408175C3408176B3407177A3407178A34
061799340617A9340517B8340517C7340517D7340417E6340417F534041705350417143503172435031733350317423503175235031761350417703504178035
04178F3504179E350417AE350417BD350417CD350417DC350517EB350517FB3504170A3604171936041729360417383604174836031757360317663602177636
01178536011794360017A436FF16B336FE16C236FD16D236FC16E136FA16F136F9160037F8160F37F7161F37F5162E37F4163D37F3164D37F1165C37F0166B37
EF167B37ED168A37EC169A37EB16A937EA16B837E816C837E716D737E616E637E516F637E4160538E3161538E2162438E1163338E0164338DF165238DD166138
DC167138DB168038DA168F38D8169F38D716AE38D516BE38D416CD38D216DC38D016EC38CE16FB38CC160A39CA161A39C7162939C5163939C2164839C0165739
BD166739BA167639B7168539B4169539B116A439AE16B339AB16C339A816D239A516E239A216F1399E16003A9B16103A98161F3A95162E3A92163E3A8F164D3A
8B165D3A88166C3A85167B3A82168B3A7F169A3A7C16A93A7916B93A7616C83A7316D73A7016E73A6D16F63A6A16063B6616153B6316243B6016343B5C16433B
5816523B5516623B5116713B4D16813B4916903B44169F3B4016AF3B3B16BE3B3716CD3B3216DD3B2D16EC3B2816FB3B23160B3C1D161A3C18162A3C1216393C
0D16483C0716583C0116673CFC15763CF615863CF015953CEB15A53CE515B43CDF15C33CDA15D33CD415E23CCE15F13CC915013DC315103DBE151F3DB9152F3D
B3153E3DAE154E3DA9155D3DA3156C3D9E157C3D99158B3D94159A3D8E15AA3D8915B93D8315C83D7E15D83D7815E73D7215F73D6C15063E6615153E6015253E
5915343E5315433E4C15533E4515623E3E15723E3715813E3015903E2815A03E2115AF3E1915BE3E1115CE3E0915DD3E0215EC3EFA14FC3EF2140B3FEA141B3F
E2142A3FDA14393FD214493FCB14583FC314673FBC14773FB514863FAE14963FA714A53FA014B43F9914C43F9314D33F8C14E23F8614F23F801401407A141040
731420406D142F4067143F4061144E405B145D4054146D404E147C4047148B4040149B403814AA403114BA402814C9402014D8401714E8400D14F74003140641
F8131641ED132541E1133441D4134441C7135341B9136341AB1372419C1381418C1391417C13A0416B13AF415A13BF414813CE413613DE412413ED411113FC41
FE120C42EA121B42D7122A42C3123A42B01249429C1258428812684275127742611287424E1296423B12A5422812B5421612C4420412D342F311E342E111F242
D1110243C1111143B1112043A211304394113F4385114E4378115E436B116D435F117C4353118C4347119B433C11AB433211BA432811C9431E11D9431511E843
0C11F74304110744FC101644F5102544ED103544E6104444E0105444D9106344D3107244CE108244C8109144C310A044BE10B044B910BF44B510CF44B110DE44
AD10ED44A910FD44A6100C45A3101B45A0102B459D103A459B10494598105945961068459510784593108745921096459110A6459010B5458F10C4458E10D445
8E10E3458D10F3458D1002468D1011468D1021468D1030468D103F468D104F468D105E468D106D468D107D468D108C468D109C468D10AB468D10BA468D10CA46
8D10D9468D10E8468C10F8468C1007478C1017478B1026478B1035478A1045478A105447891063478910734788108247881091478710A1478710B0478710C047
8710CF478710DE478710EE478810FD4789100C4889101C488A102B488C103B488D104A488F105948901069489210784895108748971097489A10A6489D10B548
A010C548A310D448A710E448AA10F348AE100249B2101249B7102149BB103049C0104049C5104F49CA105E49CF106E49D5107D49DB108D49E1109C49E810AB49
EF10BB49F610CA49FD10D9490511E9490E11F8491711084A2011174A2A11264A3411364A3F11454A4B11544A5711644A6411734A7111824A7F11924A8E11A14A
9D11B14AAD11C04ABD11CF4ACE11DF4AE011EE4AF211FD4A04120D4B17121C4B2A122C4B3E123B4B51124A4B65125A4B7912694B8D12784BA112884BB512974B
C912A64BDC12B64BEF12C54B0213D54B1413E44B2613F34B3713034C4713124C5713214C6613314C7413404C8113504C8D135F4C98136E4CA2137E4CAC138D4C
B4139C4CBB13AC4CC213BB4CC813CA4CCC13DA4CD013E94CD313F94CD613084DD713174DD813274DD813364DD813454DD813554DD713644DD513744DD413834D
D213924DD013A24DCD13B14DCB13C04DC913D04DC713DF4DC513EE4DC313FE4DC1130D4EC0131D4EBE13204EBD13204EBC13204EBC13204EBB13204EBB13204E
BB13204EBB13204EBC13204EBD13204EBD13204EBE13204EBF13204EC013204EC213204EC313204EC413204EC513204EC613204EC713204EC813204EC913204E
CA13204ECA13204ECB13204ECB13204ECB13204ECB13204ECB13204ECB13204ECA13204ECA13204EC913204EC813204EC813204EC713204EC613204EC513204E
C413204EC413204EC313204EC213204EC213204EC113204EC113204EC013204EC013204EC013204EC013204EC013204EC013204EC013204EC113204EC113204E
C113204EC213204EC313204EC313204EC413204EC513204EC513204EC613204EC713204EC713204EC813204EC813204EC913204EC913204EC913204ECA13204E
CA13204ECA13204ECA13204ECA13204ECA13204ECA13204ECA13204EC913204EC913204EC913204EC913204EC813204EC813204EC813204EC813204EC813204E
C813204EC813204EC913204EC913204EC913204ECA13204ECA13204ECB13204ECC13204ECC13204ECD13204ECE13204ECF13204ED013204ED113204ED213204E
D313204ED413204ED513204ED513204ED613204ED713204ED713204ED813204ED813204ED813204ED913204ED913204ED813204ED813204ED813204ED713204E
D613204ED513204ED513204ED313204ED213204ED113204ED013204ECE13204ECD13204ECC13204ECA13204EC91305000000020101000000040000002D010200
04000000F00104000500000004010100000014000000FF0600000600F602000024000100020000000000C832C83202000000C8320000C8320200040000002D01
040004000000F0010400070000001604DB21C832000000000500000004010D00000014000000FF0600000600F602000024000100020000000000C832C8320200
0000C8320000C8320200040000002D01040004000000F0010400070000001604781EBF301E02770808000000FA0201000000000080800000040000002D010400
05000000020101000000060800002503010443E3760F52E3760F61E3760F71E3760F80E3760F90E3760F9FE3760FAEE3760FBEE3760FCDE3760FDCE3760FECE3
760FFBE3760F0AE4760F1AE4760F29E4760F39E4760F48E4760F57E4760F67E4760F76E4760F85E4760F95E4760FA4E4760FB4E4760FC3E4760FD2E4760FE2E4
760FF1E4760F00E5760F10E5760F1FE5760F2EE5760F3EE5760F4DE5760F5DE5760F6CE5760F7BE5760F8BE5760F9AE5760FA9E5760FB9E5760FC8E5760FD8E5
760FE7E5760FF6E5760F06E6760F15E6760F24E6760F34E6760F43E6760F52E6760F62E6760F71E6760F81E6760F90E6760F9FE6760FAFE6760FBEE6760FCDE6
760FDDE6760FECE6760FFBE6760F0BE7760F1AE7760F2AE7760F39E7760F48E7760F58E7760F67E7760F76E7760F86E7760F95E7760FA5E7760FB4E7760FC3E7
760FD3E7760FE2E7760FF1E7760F01E8760F10E8760F1FE8760F2FE8760F3EE8760F4EE8760F5DE8760F6CE8760F7CE8760F8BE8760F9AE8760FAAE8760FB9E8
760FC9E8760FD8E8760FE7E8760FF7E8760F06E9760F15E9760F25E9760F34E9760F43E9760F53E9760F62E9760F72E9760F81E9760F90E9760FA0E9760FAFE9
760FBEE9760FCEE9760FDDE9760FEDE9760FFCE9760F0BEA760F1BEA760F2AEA760F39EA760F49EA760F58EA760F67EA760F77EA760F86EA760F96EA760FA5EA
760FB4EA760FC4EA760FD3EA760FE2EA760FF2EA760F01EB760F11EB760F20EB760F2FEB760F3FEB760F4EEB760F5DEB760F6DEB760F7CEB760F8BEB760F9BEB
760FAAEB760FBAEB760FC9EB760FD8EB760FE8EB760FF7EB760F06EC760F16EC760F25EC760F35EC760F44EC760F53EC760F63EC760F72EC760F81EC760F91EC
760FA0EC760FAFEC760FBFEC760FCEEC660FDEEC510FEDEC3C0FFCEC260F0CED110F1BEDFC0E2AEDE70E3AEDD20E49EDBD0E58EDA90E68ED940E77ED800E87ED
6C0E96ED580EA5ED450EB5ED320EC4ED1F0ED3ED0C0EE3EDF90DF2EDE70D02EED50D11EEC40D20EEB30D30EEA20D3FEE920D4EEE820D5EEE720D6DEE630D7CEE
540D8CEE460D9BEE380DABEE2A0DBAEE1D0DC9EE100DD9EE040DE8EEF80CF7EEED0C07EFE10C16EFD70C26EFCD0C35EFC30C44EFB90C54EFB00C63EFA80C72EF
A00C82EF980C91EF910CA0EF8A0CB0EF830CBFEF7D0CCFEF770CDEEF710CEDEF6C0CFDEF670C0CF0630C1BF05E0C2BF05B0C3AF0570C4AF0530C59F0500C68F0
4E0C78F04B0C87F0490C96F0460CA6F0440CB5F0430CC4F0410CD4F0400CE3F03E0CF3F03D0C02F13C0C11F13B0C21F13B0C30F13A0C3FF13A0C4FF1390C5EF1
390C6EF1380C7DF1380C8CF1380C9CF1380CABF1380CBAF1380CCAF1380CD9F1380CE8F1370CF8F1370C07F2370C17F2370C26F2370C35F2370C45F2370C54F2
370C63F2370C73F2370C82F2370C92F2370CA1F2370CB0F2380CC0F2380CCFF2380CDEF2380CEEF2380CFDF2380C0CF3380C1CF3390C2BF3390C3BF3390C4AF3
3A0C59F33A0C69F33B0C78F33C0C87F33D0C97F33E0CA6F33F0CB5F3400CC5F3420CD4F3430CE4F3450CF3F3470C02F44A0C12F44C0C21F44F0C30F4520C40F4
550C4FF4590C5FF45C0C6EF4610C7DF4650C8DF46A0C9CF46F0CABF4740CBBF47A0CCAF4800CD9F4860CE9F48D0CF8F4940C08F59C0C17F5A40C26F5AC0C36F5
B50C45F5BE0C54F5C80C64F5D20C73F5DC0C83F5E70C92F5F20CA1F5FE0CB1F50A0DC0F5170DCFF5240DDFF5310DEEF53F0DFDF54D0D0DF65C0D1CF66B0D2CF6
7A0D3BF68A0D4AF69A0D5AF6AB0D69F6BC0D78F6CD0D88F6DE0D97F6F00DA7F6030EB6F6150EC5F6280ED5F63B0EE4F64F0EF3F6620E03F7760E12F78A0E21F7
9F0E31F7B30E40F7C80E50F7DD0E5FF7F20E6EF7070F7EF71C0F8DF7310F9CF7470FACF75C0FBBF7710FCBF77C0FDAF7840FE9F78B0FF9F7930F08F89B0F17F8
A30F27F8AB0F36F8B20F45F8BA0F55F8C20F64F8CA0F74F8D10F83F8D90F92F8E10FA2F8E90FB1F8F00FC0F8F80FD0F80010DFF80710EFF80F10FEF816100DF9
1E101DF926102CF92D103BF935104BF93C105AF9441069F94B1079F9531088F95A1098F96110A7F96910B6F97010C6F97710D5F97F10E4F98610F4F98D1003FA
941012FA9B1022FAA31031FAAA1041FAB11050FAB8105FFABF106FFAC6107EFACC108DFAD3109DFADA10ACFAE110BCFAE810CBFAEE10DAFAF510EAFAFC10F9FA
021108FB091118FB0F1127FB161136FB1C1146FB221155FB291165FB2F1174FB351183FB3B1193FB4211A2FB4811B1FB4E11C1FB5411D0FB5A11E0FB5F11EFFB
6511FEFB6B110EFC71111DFC76112CFC7C113CFC82114BFC87115AFC8D116AFC921179FC971189FC9D1198FCA211A7FCA711B7FCAC11C6FCB111D5FCB611E5FC
BB11F4FCC01104FDC51113FDCA1122FDCF1132FDD31141FDD81150FDDD1160FDE1116FFDE6117EFDEA118EFDEE119DFDF311ADFDF711BCFDFB11CBFDFF11DBFD
0312EAFD0712F9FD0B1209FE0F1218FE131228FE171237FE1B1246FE1E1256FE221265FE251274FE291284FE2C1293FE3012A2FE3312B2FE3612C1FE3A12D1FE
3D12E0FE4012EFFE4312FFFE46120EFF49121DFF4C122DFF4F123CFF52124BFF54125BFF57126AFF5A127AFF5C1289FF5F1298FF6112A8FF6412B7FF6612C6FF
6912D6FF6B12E5FF6D12F5FF70120300721212007412220076123100781240007A1250007C125F007E126E0080127E0081128D0083129D008512AC008712BB00
8812CB008A12DA008B12E9008D12F9008E12080190121801911227019212360194124601951255019612640198127401991283019A1292019B12A2019C12B101
9D12C1019E12D0019F12DF01A012EF01A112FE01A2120D02A3121D02A3122C02A4123C02A5124B02A6125A02A6126A02A7127902A8128802A8129802A912A702
AA12B602AA12C602AB12D502AB12E502AC12F402AC120303AD121303AD122203AE123103AE124103AE125003AF126003AF126F03AF127E03B0128E03B0129D03
B012AC03B012BC03B112CB03B112DA03B112EA03B112F903B2120904B2121804B2122704B2123704B2124604B2125504B3126504B3127404B3128404B3129304
B312A204B312B204B312C104B312D004B312E004B312EF04B312FE04B3120E05B4121D05B4122D05B4123C05B4124B05B4125B05B4126A05B4127905B4128905
B4129805B412A705B412B705B412C605B412D605B412E505B412F405B4120406B4121306B4122206B4123206B4124106B4125106B4126006B4126F06B4127F06
B4128E06B4129D06B412AD06B412BC06B412CB06B412DB06B412EA06B412FA06B4120907B4121807B4122807B4123707B4124607B4125607B4126507B4127507
B4128407B4129307B412A307B412B207B412C107B412D107B412E007B412EF07B412FF07B4120E08B4121E08B4122D08B4123C08B4124C08B4125B08B4126A08
B4127A08B4128908B4129908B412A808B312B708B312C708B312D608B312E508B312F508B3120409B3121309B3122309B3123209B3124209B3125109B2126009
B2127009B2127F09B2128E09B2129E09B212AD09B112BD09B112CC09B112DB09B112EB09B112FA09B012090AB012190AB012280AAF12370AAF12470AAF12560A
AE12660AAE12750AAE12840AAD12940AAD12A30AAC12B20AAC12C20AAB12D10AAB12E10AAA12F00AAA12FF0AA9120F0BA9121E0BA8122D0BA7123D0BA7124C0B
A6125B0BA5126B0BA4127A0BA4128A0BA312990BA212A80BA112B80BA012C70B9F12D60B9E12E60B9D12F50B9C12040C9B12140C9A12230C9912330C9812420C
9712510C9512610C9412700C93127F0C91128F0C90129E0C8F12AE0C8D12BD0C8C12CC0C8A12DC0C8812EB0C8712FA0C85120A0D8312190D8212280D8012380D
7E12470D7C12570D7A12660D7812750D7612850D7412940D7212A30D7012B30D6E12C20D6C12D20D6912E10D6712F00D6412000E62120F0E5F121E0E5D122E0E
5A123D0E58124C0E55125C0E52126B0E4F127B0E4D128A0E4A12990E4712A90E4412B80E4112C70E3D12D70E3A12E60E3712F60E3412050F3012140F2D12240F
2A12330F2612420F2312520F1F12610F1B12700F1812800F14128F0F10129F0F0C12AE0F0812BD0F0412CD0F0012DC0FFC11EB0FF811FB0FF3110A10EF111A10
EB112910E6113810E2114810DD115710D9116610D4117610D0118510CB119410C611A410C111B310BC11C310B711D210B211E110AD11F110A8110011A3110F11
9E111F1198112E1193113E118E114D1188115C1183116C117D117B1178118A1172119A116C11A9116611B8116111C8115B11D7115511E7114F11F61149110512
431115123D11241237113312301143122A115212241161121D11711217118012111190120A119F120411AE12FD10BE12F610CD12F010DC12E910EC12E210FB12
DC100B13D5101A13CE102913C7103913C0104813B9105713B2106713AB107613A41085139D1095139610A4138F10B4138710C3138010D2137910E2137210F113
6A100014631010145B101F1454102F144D103E1445104D143E105D1436106C142F107B1427108B1420109A141810A9141010B9140910C8140110D814F90FE714
F20FF614EA0F0615E20F1515DB0F2415D30F3415CB0F4315C30F5315BC0F6215B40F7115AC0F8115A40F90159D0F9F15950FAF158D0FBE15850FCD157D0FDD15
760FEC154F0FFC15280F0B16010F1A16DB0E2A16B40E39168D0E4816660E5816400E6716190E7716F30D8616CC0D9516A60DA516800DB4165A0DC316340DD316
0E0DE216E80CF116C20C01179D0C1017780C2017520C2F172D0C3E17080C4E17E40B5D17BF0B6C179B0B7C17770B8B17530B9B172F0BAA170B0BB917E80AC917
C50AD817A20AE7177F0AF7175D0A06183B0A1518190A2518F8093418D6094418B5095318950962187409721854098118340990181509A018F608AF18D708BE18
B808CE189A08DD187C08ED185F08FC1842080B1925081B1908082A19EC073919D1074919B60758199B07681980077719660786194D0796193307A5191A07B419
0207C419EA06D319D306E219BB06F219A506011A8E06111A7906201A63062F1A4E063F1A3A064E1A26065D1A13066D1A00067C1AED058C1ADB059B1AC905AA1A
B805BA1AA805C91A9805D81A8805E81A7905F71A6A05061B5C05161B4F05251B4205351B3505441B2905531B1D05631B1205721B0805811BFE04911BF504A01B
EC04B01BE304BF1BDB04CE1BD404DE1BCD04ED1BC704FC1BC1040C1CBC041B1CB8042A1CB4043A1CB004491CAD04591CAB04681CA904771CA704871CA704961C
A604A51CA704B51CA704C41CA904D41CAB04E31CAD04F21CB004021DB404111DB804201DBC04301DC1043F1DC7044E1DCD045E1DD4046D1DDB047D1DE3048C1D
EC049B1DF504AB1DFE04BA1D0805C91D1205D91D1D05E81D2905F81D3505071E4205161E4F05261E5C05351E6A05441E7905541E8805631E9805721EA805821E
B805911EC905A11EDB05B01EED05BF1E0006CF1E1306DE1E2606ED1E3A06FD1E4E060C1F63061B1F79062B1F8E063A1FA5064A1FBB06591FD306681FEA06781F
0207871F1A07961F3307A61F4D07B51F6607C51F8007D41F9B07E31FB607F31FD1070220EC071120080821202508302042083F205F084F207C085E209A086E20
B8087D20D7088C20F6089C201509AB203409BA205409F006000025037603BA205409CA207409D9209509E920B509F820D6090721F8091721190A26213B0A3521
5D0A45217F0A5421A20A6321C50A7321E80A82210B0B92212F0BA121530BB021770BC0219B0BCF21BF0BDE21E40BEE21080CFD212D0C0D22520C1C22780C2B22
9D0C3B22C20C4A22E80C59220E0D6922340D78225A0D8722800D9722A60DA622CC0DB622F30DC522190ED422400EE422660EF3228D0E0223B40E1223DB0E2123
010F3123280F40234F0F4F23760F5F23840F6E238B0F7D23930F8D239B0F9C23A30FAB23AB0FBB23B20FCA23BA0FDA23C20FE923CA0FF823D10F0824D90F1724
E10F2624E80F3624F00F4524F80F5424FF0F6424071073240F108324161092241E10A1242610B1242D10C0243510CF243C10DF244410EE244B10FE2453100D25
5A101C2561102C2569103B2570104A2577105A257F106925861078258D108825941097259B10A725A210B625AA10C525B110D525B810E425BF10F325C5100326
CC101226D3102226DA103126E1104026E8105026EE105F26F5106E26FC107E2602118D2609119C260F11AC261611BB261C11CB262211DA262911E9262F11F926
351108273B11172741112727481136274E11462754115527591164275F117427651183276B1192277111A2277611B1277C11C0278211D0278711DF278C11EF27
9211FE2797110D289D111D28A2112C28A7113B28AC114B28B1115A28B6116A28BB117928C0118828C5119828CA11A728CF11B628D311C628D811D528DC11E428
E111F428E5110329EA111329EE112229F3113129F7114129FB115029FF115F2903126F2907127E290B128E290F129D291312AC291712BC291A12CB291E12DA29
2212EA292512F9292912082A2C12182A3012272A3312372A3612462A3A12552A3D12652A4012742A4312832A4612932A4912A22A4C12B12A4F12C12A5212D02A
5412E02A5712EF2A5A12FE2A5C120E2B5F121D2B61122C2B64123C2B66124B2B69125B2B6B126A2B6D12792B6F12892B7212982B7412A72B7612B72B7812C62B
7A12D52B7C12E52B7E12F42B8012042C8112132C8312222C8512322C8712412C8812502C8A12602C8B126F2C8D127F2C8E128E2C90129D2C9112AD2C9212BC2C
9412CB2C9512DB2C9612EA2C9812F92C9912092D9A12182D9B12282D9C12372D9D12462D9E12562D9F12652DA012742DA112842DA212932DA312A32DA312B22D
A412C12DA512D12DA612E02DA612EF2DA712FF2DA8120E2EA8121D2EA9122D2EAA123C2EAA124C2EAB125B2EAB126A2EAC127A2EAC12892EAD12982EAD12A82E
AE12B72EAE12C72EAE12D62EAF12E52EAF12F52EAF12042FB012132FB012232FB012322FB012412FB112512FB112602FB112702FB1127F2FB2128E2FB2129E2F
B212AD2FB212BC2FB212CC2FB212DB2FB312EB2FB312FA2FB3120930B3121930B3122830B3123730B3124730B3125630B3126530B3127530B3128430B3129430
B412A330B412B230B412C230B412D130B412E030B412F030B412FF30B4120E31B4121E31B4122D31B4123D31B4124C31B4125B31B4126B31B4127A31B4128931
B4129931B412A831B412B831B412C731B412D631B412E631B412F531B4120432B4121432B4122332B4123232B4124232B4125132B4126132B4127032B4127F32
B4128F32B4129E32B412AD32B412BD32B412CC32B412DC32B412EB32B412FA32B4120A33B4121933B4122833B4123833B4124733B4125633B4126633B4127533
B4128533B4129433B412A333B412B333B412C233B412D133B412E133B412F033B4120034B4120F34B4121E34B4122E34B3123D34B3124C34B3125C34B3126B34
B3127A34B3128A34B3129934B312A934B312B834B312C734B312D734B212E634B212F534B2120535B2121435B2122435B2123335B1124235B1125235B1126135
B1127035B1128035B0128F35B0129E35B012AE35AF12BD35AF12CD35AF12DC35AE12EB35AE12FB35AE120A36AD121936AD122936AC123836AC124836AB125736
AB126636AA127636AA128536A9129436A912A436A812B336A712C236A712D236A612E136A512F136A4120037A4120F37A3121F37A2122E37A1123D37A0124D37
9F125C379E126B379D127B379C128A379B129A379A12A9379912B8379812C8379712D7379512E6379412F6379312053891121538901224388F1233388D124338
8C1252388A126138891271388712803885128F3884129F388212AE388012BE387E12CD387C12DC387A12EC387812FB3876120A3974121A397212293970123939
6E1248396C125739691267396712763964128539621295396012A4395D12B3395A12C3395812D2395512E2395212F1394F12003A4D12103A4A121F3A47122E3A
44123E3A41124D3A3E125D3A3A126C3A37127B3A34128B3A30129A3A2D12A93A2A12B93A2612C83A2312D73A1F12E73A1B12F63A1812063B1412153B1012243B
0C12343B0812433B0412523B0012623BFC11713BF811813BF411903BEF119F3BEB11AF3BE611BE3BE211CD3BDD11DD3BD911EC3BD411FB3BD0110B3CCB111A3C
C6112A3CC111393CBC11483CB711583CB211673CAD11763CA811863CA311953C9E11A53C9811B43C9311C33C8E11D33C8811E23C8311F13C7D11013D7811103D
72111F3D6C112F3D66113E3D61114E3D5B115D3D55116C3D4F117C3D49118B3D43119A3D3D11AA3D3711B93D3011C83D2A11D83D2411E73D1D11F73D1711063E
1111153E0A11253E0411343EFD10433EF610533EF010623EE910723EE210813EDC10903ED510A03ECE10AF3EC710BE3EC010CE3EB910DD3EB210EC3EAB10FC3E
A4100B3F9D101B3F96102A3F8F10393F8710493F8010583F7910673F7210773F6A10863F6310963F5C10A53F5410B43F4D10C43F4510D33F3E10E23F3610F23F
2F100140271010402010204018102F4010103F4009104E4001105D40FA0F6D40F20F7C40EA0F8B40E20F9B40DB0FAA40D30FBA40CB0FC940C40FD840BC0FE840
B40FF740AC0F0641A40F16419D0F2541950F34418D0F4441850F53417E0F6341760F7241600F81414B0F9141360FA041210FAF410B0FBF41F60ECE41E10EDE41
CC0EED41B80EFC41A30E0C428F0E1B427B0E2A42670E3A42530E49423F0E58422C0E6842190E7742070E8742F40D9642E20DA542D10DB542BF0DC442AE0DD342
9E0DE3428D0DF2427D0D02436E0D11435F0D2043500D3043420D3F43340D4E43260D5E43190D6D430D0D7C43010D8C43F50C9B43E90CAB43DE0CBA43D40CC943
CA0CD943C00CE843B70CF743AE0C0744A60C16449E0C2544960C35448F0C4444880C5444810C63447B0C7244750C8244700C91446B0CA044660CB044610CBF44
5D0CCF44590CDE44560CED44530CFD44500C0C454D0C1B454A0C2B45480C3A45460C4945440C5945420C6845410C78453F0C87453E0C96453D0CA6453C0CB545
3B0CC4453B0CD4453A0CE345390CF345390C0246390C1146380C2146380C3046380C3F46380C4F46380C5E46380C6D46380C7D46380C8C46370C9C46370CAB46
370CBA46370CCA46370CD946370CE846370CF846370C0747370C1747370C2647370C3547370C4547380C5447380C6347380C7347380C8247380C9147380CA147
380CB047380CC047390CCF47390CDE47390CEE473A0CFD473B0C0C483B0C1C483C0C2B483D0C3B483E0C4A483F0C5948410C6948420C7848440C8748460C9748
480CA6484A0CB5484D0CC548500CD448530CE448560CF3485A0C02495E0C1249620C2149660C30496B0C4049700C4F49760C5E497B0C6E49820C7D49880C8D49
8F0C9C49960CAB499E0CBB49A60CCA49AF0CD949B70CE949C10CF849CA0C084AD50C174ADF0C264AEA0C364AF60C454A010D544A0E0D644A1A0D734A270D824A
350D924A430DA14A510DB14A600DC04A6F0DCF4A7E0DDF4A8E0DEE4A9F0DFD4AAF0D0D4BC00D1C4BD20D2C4BE30D3B4BF50D4A4B080E5A4B1A0E694B2D0E784B
410E884B540E974B680EA64B7C0EB64B900EC54BA40ED54BB90EE44BCE0EF34BE30E034CF80E124C0D0F214C220F314C370F404C4C0F504C620F5F4C760F6E4C
760F7E4C760F8D4C760F9C4C760FAC4C760FBB4C760FCA4C760FDA4C760FE94C760FF94C760F084D760F174D760F274D760F364D760F454D760F554D760F644D
760F744D760F834D760F924D760FA24D760FB14D760FC04D760FD04D760FDF4D760FEE4D760FFE4D760F0D4E760F1D4E760F204E760F204E760F204E760F204E
760F204E760F204E760F204E760F204E760F204E760F204E760F204E760F204E760F204E760F204E760F204E760F204E760F204E760F204E760F204E760F204E
760F204E760F204E760F204E760F204E760F204E760F204E760F204E760F204E760F204E760F204E760F204E760F204E760F204E760F204E760F204E760F204E
760F204E760F204E760F204E760F204E760F204E760F204E760F204E760F204E760F204E760F204E760F204E760F204E760F204E760F204E760F204E760F204E
760F204E760F204E760F204E760F204E760F204E760F204E760F204E760F204E760F204E760F204E760F204E760F204E760F204E760F204E760F204E760F204E
760F204E760F204E760F204E760F204E760F204E760F204E760F204E760F204E760F204E760F204E760F204E760F204E760F204E760F204E760F204E760F204E
760F204E760F204E760F204E760F204E760F204E760F204E760F204E760F204E760F204E760F204E760F204E760F204E760F204E760F204E760F204E760F204E
760F204E760F204E760F204E760F204E760F204E760F204E760F204E760F204E760F204E760F204E760F204E760F204E760F204E760F204E760F204E760F204E
760F204E760F204E760F204E760F204E760F204E760F204E760F204E760F204E760F204E760F204E760F204E760F204E760F204E760F05000000020101000000
040000002D01020004000000F00104000500000004010100000014000000FF0600000600F602000024000100020000000000C832C83202000000C8320000C832
0200040000002D01040004000000F0010400070000001604DB21C832000000000500000004010D00000014000000FF0600000600F60200002400010002000000
0000C832C83202000000C8320000C8320200040000002D01040004000000F0010400070000001604781EBF301E02770808000000FA0201000000000080800000
040000002D01040005000000020101000000060800002503010443E31C1852E31C1861E31C1871E31C1880E31C1890E31C189FE31C18AEE31C18BEE31C18CDE3
1C18DCE31C18ECE31C18FBE31C180AE41C181AE41C1829E41C1839E41C1848E41C1857E41C1867E41C1876E41C1885E41C1895E41C18A4E41C18B4E41C18C3E4
1C18D2E41C18E2E41C18F1E41C1800E51C1810E51C181FE51C182EE51C183EE51C184DE51C185DE51C186CE51C187BE51C188BE51C189AE51C18A9E51C18B9E5
1C18C8E51C18D8E51C18E7E51C18F6E51C1806E61C1815E61C1824E61C1834E61C1843E61C1852E61C1862E61C1871E61C1881E61C1890E61C189FE61C18AFE6
1C18BEE61C18CDE61C18DDE61C18ECE61C18FBE61C180BE71C181AE71C182AE71C1839E71C1848E71C1858E71C1867E71C1876E71C1886E71C1895E71C18A5E7
1C18B4E71C18C3E71C18D3E71C18E2E71C18F1E71C1801E81C1810E81C181FE81C182FE81C183EE81C184EE81C185DE81C186CE81C187CE81C188BE81C189AE8
1C18AAE81C18B9E81C18C9E81C18D8E81C18E7E81C18F7E81C1806E91C1815E91C1825E91C1834E91C1843E91C1853E91C1862E91C1872E91C1881E91C1890E9
1C18A0E91C18AFE91C18BEE91C18CEE91C18DDE91C18EDE91C18FCE91C180BEA1C181BEA1C182AEA1C1839EA1C1849EA1C1858EA1C1867EA1C1877EA1C1886EA
1C1896EA1C18A5EA1C18B4EA1C18C4EA1C18D3EA1C18E2EA1C18F2EA1C1801EB1C1811EB1C1820EB1C182FEB1C183FEB1C184EEB1C185DEB1C186DEB1C187CEB
1C188BEB1C189BEB1C18AAEB1C18BAEB1C18C9EB1C18D8EB1C18E8EB1C18F7EB1C1806EC1C1816EC1C1825EC1C1835EC1C1844EC1C1853EC1C1863EC1C1872EC
1C1881EC1C1891EC1C18A0EC1C18AFEC1C18BFEC1C18CEEC0C18DEECF717EDECE217FCECCC170CEDB7171BEDA2172AED8D173AED781749ED631758ED4F1768ED
3A1777ED261787ED121796EDFE16A5EDEB16B5EDD716C4EDC416D3EDB216E3ED9F16F2ED8D1602EE7B1611EE6A1620EE591630EE48163FEE38164EEE28165EEE
18166DEE09167CEEFA158CEEEC159BEEDE15ABEED015BAEEC315C9EEB615D9EEAA15E8EE9E15F7EE921507EF871516EF7D1526EF731535EF691544EF5F1554EF
561563EF4E1572EF461582EF3E1591EF3715A0EF3015B0EF2915BFEF2315CFEF1D15DEEF1715EDEF1215FDEF0D150CF009151BF004152BF000153AF0FD144AF0
F91459F0F61468F0F31478F0F11487F0EE1496F0EC14A6F0EA14B5F0E914C4F0E714D4F0E614E3F0E414F3F0E31402F1E21411F1E11421F1E11430F1E0143FF1
DF144FF1DF145EF1DF146EF1DE147DF1DE148CF1DE149CF1DE14ABF1DE14BAF1DE14CAF1DD14D9F1DD14E8F1DD14F8F1DD1407F2DD1417F2DD1426F2DD1435F2
DD1445F2DD1454F2DD1463F2DD1473F2DD1482F2DD1492F2DD14A1F2DD14B0F2DD14C0F2DD14CFF2DE14DEF2DE14EEF2DE14FDF2DE140CF3DE141CF3DE142BF3
DF143BF3DF144AF3E01459F3E01469F3E11478F3E21487F3E31497F3E414A6F3E514B5F3E614C5F3E814D4F3E914E4F3EB14F3F3ED1402F4F01412F4F21421F4
F51430F4F81440F4FB144FF4FF145FF402156EF406157DF40B158DF410159CF41515ABF41A15BBF42015CAF42615D9F42C15E9F43315F8F43A1508F5421517F5
4A1526F5521536F55B1545F5641554F56E1564F5781573F5821583F58D1592F59815A1F5A415B1F5B015C0F5BD15CFF5CA15DFF5D715EEF5E515FDF5F3150DF6
02161CF611162CF620163BF630164AF640165AF6511669F6611678F6731688F6841697F69616A7F6A916B6F6BB16C5F6CE16D5F6E116E4F6F516F3F6081703F7
1C1712F7301721F7451731F7591740F76E1750F783175FF798176EF7AD177EF7C2178DF7D7179CF7EC17ACF70218BBF71718CBF72218DAF72A18E9F73118F9F7
391808F8411817F8491827F8511836F8581845F8601855F8681864F8701874F8771883F87F1892F88718A2F88E18B1F89618C0F89E18D0F8A518DFF8AD18EFF8
B518FEF8BC180DF9C4181DF9CC182CF9D3183BF9DB184BF9E2185AF9EA1869F9F11879F9F81888F9001998F90719A7F90F19B6F91619C6F91D19D5F92519E4F9
2C19F4F9331903FA3A1912FA411922FA481931FA501941FA571950FA5E195FFA65196FFA6B197EFA72198DFA79199DFA8019ACFA8719BCFA8E19CBFA9419DAFA
9B19EAFAA219F9FAA81908FBAF1918FBB51927FBBC1936FBC21946FBC81955FBCF1965FBD51974FBDB1983FBE11993FBE719A2FBEE19B1FBF419C1FBFA19D0FB
FF19E0FB051AEFFB0B1AFEFB111A0EFC171A1DFC1C1A2CFC221A3CFC271A4BFC2D1A5AFC321A6AFC381A79FC3D1A89FC431A98FC481AA7FC4D1AB7FC521AC6FC
571AD5FC5C1AE5FC611AF4FC661A04FD6B1A13FD701A22FD751A32FD791A41FD7E1A50FD821A60FD871A6FFD8B1A7EFD901A8EFD941A9DFD981AADFD9D1ABCFD
A11ACBFDA51ADBFDA91AEAFDAD1AF9FDB11A09FEB51A18FEB91A28FEBD1A37FEC01A46FEC41A56FEC81A65FECB1A74FECF1A84FED21A93FED61AA2FED91AB2FE
DC1AC1FEE01AD1FEE31AE0FEE61AEFFEE91AFFFEEC1A0EFFEF1A1DFFF21A2DFFF51A3CFFF81A4BFFFA1A5BFFFD1A6AFF001B7AFF021B89FF051B98FF071BA8FF
0A1BB7FF0C1BC6FF0F1BD6FF111BE5FF131BF5FF151B0300181B12001A1B22001C1B31001E1B4000201B5000221B5F00241B6E00251B7E00271B8D00291B9D00
2B1BAC002C1BBB002E1BCB00301BDA00311BE900331BF900341B0801361B1801371B2701381B36013A1B46013B1B55013C1B64013D1B74013F1B8301401B9201
411BA201421BB101431BC101441BD001451BDF01461BEF01471BFE01481B0D02491B1D02491B2C024A1B3C024B1B4B024C1B5A024C1B6A024D1B79024E1B8802
4E1B98024F1BA702501BB602501BC602511BD502511BE502521BF402521B0303531B1303531B2203531B3103541B4103541B5003551B6003551B6F03551B7E03
561B8E03561B9D03561BAC03561BBC03571BCB03571BDA03571BEA03571BF903581B0904581B1804581B2704581B3704581B4604581B5504581B6504591B7404
591B8404591B9304591BA204591BB204591BC104591BD004591BE004591BEF04591BFE04591B0E05591B1D05591B2D055A1B3C055A1B4B055A1B5B055A1B6A05
5A1B79055A1B89055A1B98055A1BA7055A1BB7055A1BC6055A1BD6055A1BE5055A1BF4055A1B04065A1B13065A1B22065A1B32065A1B41065A1B51065A1B6006
5A1B6F065A1B7F065A1B8E065A1B9D065A1BAD065A1BBC065A1BCB065A1BDB065A1BEA065A1BFA065A1B09075A1B18075A1B28075A1B37075A1B46075A1B5607
5A1B65075A1B75075A1B84075A1B93075A1BA3075A1BB2075A1BC1075A1BD1075A1BE0075A1BEF075A1BFF075A1B0E085A1B1E085A1B2D085A1B3C085A1B4C08
5A1B5B085A1B6A085A1B7A085A1B8908591B9908591BA808591BB708591BC708591BD608591BE508591BF508591B0409591B1309591B2309591B3209591B4209
581B5109581B6009581B7009581B7F09581B8E09581B9E09581BAD09571BBD09571BCC09571BDB09571BEB09561BFA09561B090A561B190A561B280A551B370A
551B470A551B560A541B660A541B750A541B840A531B940A531BA30A521BB20A521BC20A511BD10A511BE10A501BF00A501BFF0A4F1B0F0B4E1B1E0B4E1B2D0B
4D1B3D0B4D1B4C0B4C1B5B0B4B1B6B0B4A1B7A0B4A1B8A0B491B990B481BA80B471BB80B461BC70B451BD60B441BE60B431BF50B421B040C411B140C401B230C
3F1B330C3E1B420C3C1B510C3B1B610C3A1B700C391B7F0C371B8F0C361B9E0C351BAE0C331BBD0C321BCC0C301BDC0C2E1BEB0C2D1BFA0C2B1B0A0D291B190D
281B280D261B380D241B470D221B570D201B660D1E1B750D1C1B850D1A1B940D181BA30D161BB30D141BC20D111BD20D0F1BE10D0D1BF00D0A1B000E081B0F0E
051B1E0E031B2E0E001B3D0EFE1A4C0EFB1A5C0EF81A6B0EF51A7B0EF21A8A0EF01A990EED1AA90EEA1AB80EE71AC70EE31AD70EE01AE60EDD1AF60EDA1A050F
D61A140FD31A240FD01A330FCC1A420FC81A520FC51A610FC11A700FBD1A800FBA1A8F0FB61A9F0FB21AAE0FAE1ABD0FAA1ACD0FA61ADC0FA21AEB0F9E1AFB0F
991A0A10951A1A10911A29108C1A3810881A4810831A57107F1A66107A1A7610751A8510711A94106C1AA410671AB310621AC3105D1AD210581AE110531AF110
4E1A0011491A0F11441A1F113E1A2E11391A3E11341A4D112E1A5C11291A6C11231A7B111D1A8A11181A9A11121AA9110C1AB811071AC811011AD711FB19E711
F519F611EF190512E9191512E3192412DC193312D6194312D0195212CA196112C3197112BD198012B6199012B0199F12A919AE12A319BE129C19CD129619DC12
8F19EC128819FB1281190B137B191A13741929136D193913661948135F19571358196713511976134A198513431995133C19A4133419B4132D19C3132619D213
1F19E2131719F113101900140919101401191F14FA182F14F3183E14EB184D14E4185D14DC186C14D5187B14CD188B14C5189A14BE18A914B618B914AF18C814
A718D8149F18E7149818F614901806158818151581182415791834157118431569185315621862155A187115521881154A18901543189F153B18AF153318BE15
2B18CD152318DD151C18EC15F517FC15CE170B16A7171A1680172A165A173916331748160C175816E6166716BF16771699168616721695164C16A5162616B416
0016C316DA15D316B415E2168E15F11668150117431510171D152017F8142F17D3143E17AE144E178A145D1765146C1741147C171D148B17F9139B17D513AA17
B113B9178E13C9176B13D8174813E7172513F71703130618E1121518BF1225189E1234187C1244185B1253183B1262181A127218FA118118DA119018BB11A018
9C11AF187D11BE185E11CE184011DD182211ED180511FC18E8100B19CB101B19AE102A1992103919771049195B10581941106819261077190C108619F20F9619
D90FA519C00FB419A80FC419900FD319780FE219610FF2194B0F011A340F111A1F0F201A090F2F1AF40E3F1AE00E4E1ACC0E5D1AB90E6D1AA60E7C1A930E8C1A
810E9B1A6F0EAA1A5E0EBA1A4E0EC91A3E0ED81A2E0EE81A1F0EF71A100E061B020E161BF50D251BE70D351BDB0D441BCF0D531BC30D631BB80D721BAE0D811B
A40D911B9A0DA01B920DB01B890DBF1B810DCE1B7A0DDE1B730DED1B6D0DFC1B670D0C1C620D1B1C5E0D2A1C5A0D3A1C560D491C530D591C510D681C4F0D771C
4D0D871C4C0D961C4C0DA51C4C0DB51C4D0DC41C4F0DD41C510DE31C530DF21C560D021D5A0D111D5E0D201D620D301D670D3F1D6D0D4E1D730D5E1D7A0D6D1D
810D7D1D890D8C1D920D9B1D9A0DAB1DA40DBA1DAE0DC91DB80DD91DC30DE81DCF0DF81DDB0D071EE70D161EF50D261E020E351E100E441E1F0E541E2E0E631E
3E0E721E4E0E821E5E0E911E6F0EA11E810EB01E930EBF1EA60ECF1EB90EDE1ECC0EED1EE00EFD1EF40E0C1F090F1B1F1F0F2B1F340F3A1F4B0F4A1F610F591F
780F681F900F781FA80F871FC00F961FD90FA61FF20FB51F0C10C51F2610D41F4110E31F5B10F31F7710022092101120AE102120CB103020E8103F2005114F20
22115E2040116E205E117D207D118C209C119C20BB11AB20DA11BA20FA11F006000025037603BA20FA11CA201A12D9203B12E9205B12F8207C1207219E121721
BF122621E11235210313452125135421481363216B1373218E138221B1139221D513A121F913B0211D14C0214114CF216514DE218A14EE21AE14FD21D3140D22
F8141C221D152B2243153B2268154A228E155922B4156922DA15782200168722261697224C16A6227216B6229916C522BF16D422E616E4220C17F32233170223
5A17122380172123A7173123CE174023F5174F231C185F232A186E2331187D2339188D2341189C234918AB235018BB235818CA236018DA236818E9236F18F823
771808247F181724871826248E183624961845249E185424A5186424AD187324B5188324BC189224C418A124CB18B124D318C024DB18CF24E218DF24EA18EE24
F118FE24F8180D2500191C2507192C250F193B2516194A251D195A25241969252C197825331988253A1997254119A7254819B6254F19C5255619D5255D19E425
6419F3256B190326721912267919222680193126871940268E19502694195F269B196E26A1197E26A8198D26AF199C26B519AC26BC19BB26C219CB26C819DA26
CF19E926D519F926DB190827E1191727E7192727ED193627F3194627F9195527FF196427051A74270B1A8327111A9227171AA2271C1AB127221AC027271AD027
2D1ADF27321AEF27381AFE273D1A0D28421A1D28481A2C284D1A3B28521A4B28571A5A285C1A6A28611A7928661A88286B1A9828701AA728741AB628791AC628
7E1AD528821AE428871AF4288B1A0329901A1329941A2229981A31299D1A4129A11A5029A51A5F29A91A6F29AD1A7E29B11A8E29B51A9D29B91AAC29BD1ABC29
C01ACB29C41ADA29C81AEA29CB1AF929CF1A082AD21A182AD61A272AD91A372ADC1A462AE01A552AE31A652AE61A742AE91A832AEC1A932AEF1AA22AF21AB12A
F51AC12AF81AD02AFA1AE02AFD1AEF2A001BFE2A021B0E2B051B1D2B071B2C2B0A1B3C2B0C1B4B2B0F1B5B2B111B6A2B131B792B151B892B181B982B1A1BA72B
1C1BB72B1E1BC62B201BD52B221BE52B241BF42B251B042C271B132C291B222C2B1B322C2C1B412C2E1B502C301B602C311B6F2C331B7F2C341B8E2C361B9D2C
371BAD2C381BBC2C3A1BCB2C3B1BDB2C3C1BEA2C3D1BF92C3F1B092D401B182D411B282D421B372D431B462D441B562D451B652D461B742D471B842D481B932D
491BA32D491BB22D4A1BC12D4B1BD12D4C1BE02D4C1BEF2D4D1BFF2D4E1B0E2E4E1B1D2E4F1B2D2E501B3C2E501B4C2E511B5B2E511B6A2E521B7A2E521B892E
531B982E531BA82E531BB72E541BC72E541BD62E551BE52E551BF52E551B042F561B132F561B232F561B322F561B412F571B512F571B602F571B702F571B7F2F
581B8E2F581B9E2F581BAD2F581BBC2F581BCC2F581BDB2F581BEB2F591BFA2F591B0930591B1930591B2830591B3730591B4730591B5630591B6530591B7530
591B8430591B9430591BA330591BB2305A1BC2305A1BD1305A1BE0305A1BF0305A1BFF305A1B0E315A1B1E315A1B2D315A1B3D315A1B4C315A1B5B315A1B6B31
5A1B7A315A1B89315A1B99315A1BA8315A1BB8315A1BC7315A1BD6315A1BE6315A1BF5315A1B04325A1B14325A1B23325A1B32325A1B42325A1B51325A1B6132
5A1B70325A1B7F325A1B8F325A1B9E325A1BAD325A1BBD325A1BCC325A1BDC325A1BEB325A1BFA325A1B0A335A1B19335A1B28335A1B38335A1B47335A1B5633
5A1B66335A1B75335A1B85335A1B94335A1BA3335A1BB3335A1BC2335A1BD1335A1BE1335A1BF0335A1B00345A1B0F34591B1E34591B2E34591B3D34591B4C34
591B5C34591B6B34591B7A34591B8A34591B9934591BA934591BB834591BC734581BD734581BE634581BF534581B0535581B1435581B2435581B3335571B4235
571B5235571B6135571B7035561B8035561B8F35561B9E35561BAE35551BBD35551BCD35551BDC35541BEB35541BFB35541B0A36531B1936531B2936521B3836
521B4836511B5736511B6636501B7636501B85364F1B94364E1BA4364E1BB3364D1BC2364D1BD2364C1BE1364B1BF1364A1B00374A1B0F37491B1F37481B2E37
471B3D37461B4D37451B5C37441B6B37431B7B37421B8A37411B9A37401BA9373F1BB8373E1BC8373C1BD7373B1BE6373A1BF637391B0538371B1538361B2438
351B3338331B4338321B5238301B61382E1B71382D1B80382B1B8F38291B9F38281BAE38261BBE38241BCD38221BDC38201BEC381E1BFB381C1B0A391A1B1A39
181B2939161B3939141B4839111B57390F1B67390D1B76390A1B8539081B9539051BA439031BB339001BC339FE1AD239FB1AE239F81AF139F51A003AF31A103A
F01A1F3AED1A2E3AEA1A3E3AE71A4D3AE31A5D3AE01A6C3ADD1A7B3ADA1A8B3AD61A9A3AD31AA93AD01AB93ACC1AC83AC81AD73AC51AE73AC11AF63ABD1A063B
BA1A153BB61A243BB21A343BAE1A433BAA1A523BA61A623BA21A713B9E1A813B991A903B951A9F3B911AAF3B8C1ABE3B881ACD3B831ADD3B7F1AEC3B7A1AFB3B
761A0B3C711A1A3C6C1A2A3C671A393C621A483C5D1A583C581A673C531A763C4E1A863C491A953C441AA53C3E1AB43C391AC33C341AD33C2E1AE23C291AF13C
231A013D1E1A103D181A1F3D121A2F3D0C1A3E3D071A4E3D011A5D3DFB196C3DF5197C3DEF198B3DE9199A3DE319AA3DDC19B93DD619C83DD019D83DCA19E73D
C319F73DBD19063EB719153EB019253EAA19343EA319433E9C19533E9619623E8F19723E8819813E8219903E7B19A03E7419AF3E6D19BE3E6619CE3E5F19DD3E
5819EC3E5119FC3E4A190B3F43191B3F3C192A3F3519393F2D19493F2619583F1F19673F1819773F1019863F0919963F0119A53FFA18B43FF318C43FEB18D33F
E418E23FDC18F23FD5180140CD181040C6182040BE182F40B6183F40AF184E40A7185D409F186D4098187C4090188B4088189B408118AA407918BA407118C940
6918D8406218E8405A18F740521806414A181641431825413B183441331844412B185341231863411C18724106188141F1179141DC17A041C617AF41B117BF41
9C17CE418717DE417217ED415E17FC4149170C4235171B4220172A420D173A42F9164942E5165842D2166842BF167742AD1687429A1696428816A5427716B542
6516C4425416D3424416E3423316F242231602431416114305162043F6153043E8153F43DA154E43CC155E43BF156D43B3157C43A6158C439B159B438F15AB43
8415BA437A15C9437015D9436615E8435D15F743541507444C151644431525443C153544351544442E15544427156344211572441B158244161591441115A044
0C15B0440715BF440315CF44FF14DE44FC14ED44F914FD44F5140C45F3141B45F0142B45EE143A45EC144945EA145945E8146845E7147845E5148745E4149645
E314A645E214B545E114C445E014D445E014E345DF14F345DF140246DF141146DE142146DE143046DE143F46DE144F46DE145E46DE146D46DD147D46DD148C46
DD149C46DD14AB46DD14BA46DD14CA46DD14D946DD14E846DD14F846DD140747DD141747DD142647DD143547DD144547DD145447DD146347DE147347DE148247
DE149147DE14A147DE14B047DE14C047DF14CF47DF14DE47DF14EE47E014FD47E0140C48E1141C48E2142B48E3143B48E4144A48E5145948E7146948E8147848
EA148748EC149748EE14A648F014B548F314C548F614D448F914E448FC14F3480015024903151249081521490C1530491115404916154F491C155E4921156E49
28157D492E158D4935159C493C15AB494415BB494C15CA495415D9495D15E9496715F8497015084A7B15174A8515264A9015364A9B15454AA715544AB315644A
C015734ACD15824ADB15924AE915A14AF715B14A0616C04A1516CF4A2416DF4A3416EE4A4516FD4A55160D4B66161C4B78162C4B89163B4B9B164A4BAE165A4B
C016694BD316784BE716884BFA16974B0E17A64B2217B64B3617C54B4A17D54B5F17E44B7417F34B8817034C9D17124CB317214CC817314CDD17404CF217504C
08185F4C1C186E4C1C187E4C1C188D4C1C189C4C1C18AC4C1C18BB4C1C18CA4C1C18DA4C1C18E94C1C18F94C1C18084D1C18174D1C18274D1C18364D1C18454D
1C18554D1C18644D1C18744D1C18834D1C18924D1C18A24D1C18B14D1C18C04D1C18D04D1C18DF4D1C18EE4D1C18FE4D1C180D4E1C181D4E1C18204E1C18204E
1C18204E1C18204E1C18204E1C18204E1C18204E1C18204E1C18204E1C18204E1C18204E1C18204E1C18204E1C18204E1C18204E1C18204E1C18204E1C18204E
1C18204E1C18204E1C18204E1C18204E1C18204E1C18204E1C18204E1C18204E1C18204E1C18204E1C18204E1C18204E1C18204E1C18204E1C18204E1C18204E
1C18204E1C18204E1C18204E1C18204E1C18204E1C18204E1C18204E1C18204E1C18204E1C18204E1C18204E1C18204E1C18204E1C18204E1C18204E1C18204E
1C18204E1C18204E1C18204E1C18204E1C18204E1C18204E1C18204E1C18204E1C18204E1C18204E1C18204E1C18204E1C18204E1C18204E1C18204E1C18204E
1C18204E1C18204E1C18204E1C18204E1C18204E1C18204E1C18204E1C18204E1C18204E1C18204E1C18204E1C18204E1C18204E1C18204E1C18204E1C18204E
1C18204E1C18204E1C18204E1C18204E1C18204E1C18204E1C18204E1C18204E1C18204E1C18204E1C18204E1C18204E1C18204E1C18204E1C18204E1C18204E
1C18204E1C18204E1C18204E1C18204E1C18204E1C18204E1C18204E1C18204E1C18204E1C18204E1C18204E1C18204E1C18204E1C18204E1C18204E1C18204E
1C18204E1C18204E1C18204E1C18204E1C18204E1C18204E1C18204E1C18204E1C18204E1C18204E1C18204E1C18204E1C18204E1C18204E1C18204E1C180500
0000020101000000040000002D01020004000000F00104000500000004010100000014000000FF0600000600F602000024000100020000000000C832C8320200
0000C8320000C8320200040000002D01040004000000F0010400070000001604DB21C832000000000500000004010D00000014000000FF0600000600F6020000
24000100020000000000C832C83202000000C8320000C8320200040000002D01040004000000F0010400070000001604781EBF301E02770808000000FA020000
16000000FF000000040000002D01040005000000020101000000060800002503010443E3610E52E3610E61E3610E71E3610E80E3610E90E3610E9FE3610EAEE3
610EBEE3610ECDE3610EDCE3610EECE3610EFBE3610E0AE4610E1AE4610E29E4610E39E4610E48E4610E57E4610E67E4610E76E4610E85E4610E95E4610EA4E4
610EB4E4610EC3E4610ED2E4610EE2E4610EF1E4610E00E5610E10E5610E1FE5610E2EE5610E3EE5610E4DE5610E5DE5610E6CE5610E7BE5610E8BE5610E9AE5
610EA9E5610EB9E5610EC8E5610ED8E5610EE7E5610EF6E5610E06E6610E15E6610E24E6610E34E6610E43E6610E52E6610E62E6610E71E6610E81E6610E90E6
610E9FE6610EAFE6610EBEE6610ECDE6610EDDE6610EECE6610EFBE6610E0BE7610E1AE7610E2AE7610E39E7610E48E7610E58E7610E67E7610E76E7610E86E7
610E95E7610EA5E7610EB4E7610EC3E7610ED3E7610EE2E7610EF1E7610E01E8610E10E8610E1FE8610E2FE8610E3EE8610E4EE8610E5DE8610E6CE8610E7CE8
610E8BE8610E9AE8610EAAE8610EB9E8610EC9E8610ED8E8610EE7E8610EF7E8610E06E9610E15E9610E25E9610E34E9610E43E9610E53E9610E62E9610E72E9
610E81E9610E90E9610EA0E9610EAFE9610EBEE9610ECEE9610EDDE9610EEDE9610EFCE9610E0BEA610E1BEA610E2AEA610E39EA610E49EA610E58EA610E67EA
610E77EA610E86EA610E96EA610EA5EA610EB4EA610EC4EA610ED3EA610EE2EA610EF2EA610E01EB610E11EB610E20EB610E2FEB610E3FEB610E4EEB610E5DEB
610E6DEB610E7CEB610E8BEB610E9BEB610EAAEB610EBAEB610EC9EB610ED8EB610EE8EB610EF7EB610E06EC610E16EC610E25EC610E35EC610E44EC610E53EC
610E63EC610E72EC610E81EC610E91EC610EA0EC610EAFEC610EBFEC610ECEEC520EDEEC3C0EEDEC270EFCEC120E0CEDFC0D1BEDE70D2AEDD20D3AEDBD0D49ED
A90D58ED940D68ED800D77ED6B0D87ED570D96ED440DA5ED300DB5ED1D0DC4ED0A0DD3EDF70CE3EDE50CF2EDD30C02EEC10C11EEAF0C20EE9E0C30EE8D0C3FEE
7D0C4EEE6D0C5EEE5D0C6DEE4E0C7CEE3F0C8CEE310C9BEE230CABEE150CBAEE080CC9EEFB0BD9EEEF0BE8EEE30BF7EED80B07EFCD0B16EFC20B26EFB80B35EF
AE0B44EFA50B54EF9C0B63EF930B72EF8B0B82EF830B91EF7C0BA0EF750BB0EF6E0BBFEF680BCFEF620BDEEF5D0BEDEF570BFDEF530B0CF04E0B1BF04A0B2BF0
460B3AF0420B4AF03F0B59F03C0B68F0390B78F0360B87F0340B96F0320BA6F0300BB5F02E0BC4F02C0BD4F02B0BE3F02A0BF3F0290B02F1280B11F1270B21F1
260B30F1250B3FF1250B4FF1240B5EF1240B6EF1240B7DF1230B8CF1230B9CF1230BABF1230BBAF1230BCAF1230BD9F1230BE8F1230BF8F1230B07F2230B17F2
230B26F2230B35F2230B45F2230B54F2230B63F2230B73F2230B82F2230B92F2230BA1F2230BB0F2230BC0F2230BCFF2230BDEF2230BEEF2230BFDF2230B0CF3
240B1CF3240B2BF3240B3BF3250B4AF3250B59F3260B69F3260B78F3270B87F3280B97F3290BA6F32A0BB5F32C0BC5F32D0BD4F32F0BE4F3310BF3F3330B02F4
350B12F4370B21F43A0B30F43D0B40F4400B4FF4440B5FF4480B6EF44C0B7DF4500B8DF4550B9CF45A0BABF45F0BBBF4650BCAF46B0BD9F4720BE9F4780BF8F4
800B08F5870B17F58F0B26F5970B36F5A00B45F5A90B54F5B30B64F5BD0B73F5C70B83F5D20B92F5DE0BA1F5E90BB1F5F50BC0F5020CCFF50F0CDFF51C0CEEF5
2A0CFDF5380C0DF6470C1CF6560C2CF6650C3BF6750C4AF6850C5AF6960C69F6A70C78F6B80C88F6CA0C97F6DC0CA7F6EE0CB6F6010DC5F6130DD5F6270DE4F6
3A0DF3F64E0D03F7620D12F7760D21F78A0D31F79F0D40F7B30D50F7C80D5FF7DD0D6EF7F20D7EF7070E8DF71C0E9CF7320EACF7470EBBF75D0ECBF7670EDAF7
6F0EE9F7770EF9F77F0E08F8860E17F88E0E27F8960E36F89E0E45F8A50E55F8AD0E64F8B50E74F8BD0E83F8C40E92F8CC0EA2F8D40EB1F8DB0EC0F8E30ED0F8
EB0EDFF8F20EEFF8FA0EFEF8020F0DF9090F1DF9110F2CF9180F3BF9200F4BF9270F5AF92F0F69F9360F79F93E0F88F9450F98F94D0FA7F9540FB6F95B0FC6F9
630FD5F96A0FE4F9710FF4F9780F03FA800F12FA870F22FA8E0F31FA950F41FA9C0F50FAA30F5FFAAA0F6FFAB10F7EFAB80F8DFABF0F9DFAC50FACFACC0FBCFA
D30FCBFADA0FDAFAE00FEAFAE70FF9FAED0F08FBF40F18FBFB0F27FB011036FB071046FB0E1055FB141065FB1A1074FB211083FB271093FB2D10A2FB3310B1FB
3910C1FB3F10D0FB4510E0FB4B10EFFB5010FEFB56100EFC5C101DFC62102CFC67103CFC6D104BFC72105AFC78106AFC7D1079FC831089FC881098FC8D10A7FC
9210B7FC9710C6FC9D10D5FCA210E5FCA710F4FCAB1004FDB01013FDB51022FDBA1032FDBF1041FDC31050FDC81060FDCC106FFDD1107EFDD5108EFDDA109DFD
DE10ADFDE210BCFDE610CBFDEA10DBFDEE10EAFDF310F9FDF61009FEFA1018FEFE1028FE021137FE061146FE091156FE0D1165FE111174FE141184FE181193FE
1B11A2FE1E11B2FE2211C1FE2511D1FE2811E0FE2B11EFFE2E11FFFE31110EFF34111DFF37112DFF3A113CFF3D114BFF40115BFF42116AFF45117AFF481189FF
4A1198FF4D11A8FF4F11B7FF5211C6FF5411D6FF5611E5FF5911F5FF5B1103005D1112005F11220061113100631140006511500067115F0069116E006B117E00
6D118D006E119D007011AC007211BB007311CB007511DA007711E9007811F9007A1108017B1118017C1127017E1136017F114601801155018211640183117401
84118301851192018611A2018711B1018811C1018911D0018A11DF018B11EF018C11FE018D110D028E111D028F112C0290113C0290114B0291115A0292116A02
9211790293118802941198029411A7029511B6029511C6029611D5029711E5029711F40297110303981113039811220399113103991141039A1150039A116003
9A116F039B117E039B118E039B119D039B11AC039C11BC039C11CB039C11DA039C11EA039D11F9039D1109049D1118049D1127049D1137049E1146049E115504
9E1165049E1174049E1184049E1193049E11A2049E11B2049E11C1049F11D0049F11E0049F11EF049F11FE049F110E059F111D059F112D059F113C059F114B05
9F115B059F116A059F1179059F1189059F1198059F11A7059F11B7059F11C6059F11D6059F11E5059F11F4059F1104069F1113069F1122069F1132069F114106
9F1151069F1160069F116F069F117F069F118E069F119D069F11AD069F11BC069F11CB069F11DB069F11EA069F11FA069F1109079F1118079F1128079F113707
9F1146079F1156079F1165079F1175079F1184079F1193079F11A3079F11B2079F11C1079F11D1079F11E0079F11EF079F11FF079F110E089F111E089F112D08
9F113C089F114C089F115B089F116A089F117A089F1189089F1199089F11A8089F11B7089F11C7089F11D6089F11E5089E11F5089E1104099E1113099E112309
9E1132099E1142099E1151099E1160099E1170099D117F099D118E099D119E099D11AD099D11BD099C11CC099C11DB099C11EB099C11FA099C11090A9B11190A
9B11280A9B11370A9A11470A9A11560A9A11660A9911750A9911840A9811940A9811A30A9811B20A9711C20A9711D10A9611E10A9611F00A9511FF0A94110F0B
94111E0B93112D0B93113D0B92114C0B91115B0B90116B0B90117A0B8F118A0B8E11990B8D11A80B8C11B80B8B11C70B8B11D60B8A11E60B8911F50B8811040C
8611140C8511230C8411330C8311420C8211510C8111610C7F11700C7E117F0C7D118F0C7B119E0C7A11AE0C7811BD0C7711CC0C7511DC0C7411EB0C7211FA0C
70110A0D6F11190D6D11280D6B11380D6911470D6711570D6611660D6411750D6211850D5F11940D5D11A30D5B11B30D5911C20D5711D20D5411E10D5211F00D
5011000E4D110F0E4B111E0E48112E0E46113D0E43114C0E40115C0E3E116B0E3B117B0E38118A0E3511990E3211A90E2F11B80E2C11C70E2911D70E2611E60E
2211F60E1F11050F1C11140F1811240F1511330F1111420F0E11520F0A11610F0711700F0311800FFF108F0FFB109F0FF710AE0FF310BD0FEF10CD0FEB10DC0F
E710EB0FE310FB0FDF100A10DA101A10D6102910D2103810CD104810C9105710C4106610C0107610BB108510B6109410B110A410AC10B310A810C310A310D210
9E10E1109810F110931000118E100F1189101F1184102E117E103E1179104D1173105C116E106C1168107B1163108A115D109A115710A9115210B8114C10C811
4610D7114010E7113A10F611341005122E10151228102412221033121C104312151052120F1061120910711202108012FC0F9012F50F9F12EF0FAE12E80FBE12
E20FCD12DB0FDC12D40FEC12CE0FFB12C70F0B13C00F1A13B90F2913B20F3913AB0F4813A40F57139D0F6713960F76138F0F8513880F9513810FA4137A0FB413
730FC3136B0FD213640FE2135D0FF113550F00144E0F1014470F1F143F0F2F14380F3E14300F4D14290F5D14210F6C141A0F7B14120F8B140B0F9A14030FA914
FC0EB914F40EC814EC0ED814E50EE714DD0EF614D50E0615CE0E1515C60E2415BE0E3415B60E4315AF0E5315A70E62159F0E7115970E8115900E9015880E9F15
800EAF15780EBE15710ECD15690EDD15610EEC153A0EFC15130E0B16ED0D1A16C60D2A169F0D3916780D4816520D58162B0D6716050D7716DE0C8616B80C9516
910CA5166B0CB416450CC3161F0CD316F90BE216D30BF116AE0B0117880B1017630B20173E0B2F17190B3E17F40A4E17CF0A5D17AA0A6C17860A7C17620A8B17
3E0A9B171A0AAA17F709B917D309C917B009D8178D09E7176B09F717480906182609151804092518E3083418C2084418A1085318800862185F0872183F088118
200890180008A018E107AF18C207BE18A307CE188507DD186707ED184A07FC182D070B1910071B19F4062A19D8063919BC064919A1065819860668196C067719
51068619380696191F06A5190606B419ED05C419D505D319BE05E219A705F2199005011A7A05111A6405201A4F052F1A3A053F1A25054E1A11055D1AFE046D1A
EB047C1AD8048C1AC6049B1AB504AA1AA404BA1A9304C91A8304D81A7304E81A6404F71A5604061B4804161B3A04251B2D04351B2004441B1404531B0904631B
FE03721BF303811BE903911BE003A01BD703B01BCF03BF1BC703CE1BBF03DE1BB903ED1BB203FC1BAD030C1CA8031B1CA3032A1C9F033A1C9B03491C9803591C
9603681C9403771C9303871C9203961C9203A51C9203B51C9303C41C9403D41C9603E31C9803F21C9B03021D9F03111DA303201DA803301DAD033F1DB2034E1D
B9035E1DBF036D1DC7037D1DCF038C1DD7039B1DE003AB1DE903BA1DF303C91DFE03D91D0904E81D1404F81D2004071E2D04161E3A04261E4804351E5604441E
6404541E7304631E8304721E9304821EA404911EB504A11EC604B01ED804BF1EEB04CF1EFE04DE1E1105ED1E2505FD1E3A050C1F4F051B1F64052B1F7A053A1F
90054A1FA705591FBE05681FD505781FED05871F0606961F1F06A61F3806B51F5106C51F6C06D41F8606E31FA106F31FBC060220D8061120F406212010073020
2D073F204A074F2067075E2085076E20A3077D20C2078C20E1079C200008AB202008BA203F08F006000025037603BA203F08CA205F08D9208008E920A108F820
C2080721E30817210409262126093521480945216B0954218D096321B0097321D3098221F70992211A0AA1213E0AB021620AC021860ACF21AA0ADE21CF0AEE21
F40AFD21190B0D223E0B1C22630B2B22880B3B22AE0B4A22D30B5922F90B69221F0C7822450C87226B0C9722910CA622B80CB622DE0CC522050DD4222B0DE422
520DF322780D02239F0D1223C60D2123ED0D3123130E40233A0E4F23610E5F236F0E6E23770E7D237E0E8D23860E9C238E0EAB23960EBB239E0ECA23A50EDA23
AD0EE923B50EF823BD0E0824C40E1724CC0E2624D40E3624DB0E4524E30E5424EB0E6424F20E7324FA0E8324020F9224090FA124110FB124180FC024200FCF24
270FDF242F0FEE24360FFE243E0F0D25450F1C254D0F2C25540F3B255B0F4A25630F5A256A0F6925710F7825780F88257F0F9725870FA7258E0FB625950FC525
9C0FD525A30FE425AA0FF325B10F0326B80F1226BF0F2226C50F3126CC0F4026D30F5026DA0F5F26E00F6E26E70F7E26ED0F8D26F40F9C26FA0FAC260110BB26
0710CB260E10DA261410E9261A10F92620100827271017272D10272733103627391046273F105527451064274B10742750108327561092275C10A2276210B127
6710C0276D10D0277210DF277810EF277D10FE2783100D2888101D288D102C2892103B2897104B289C105A28A2106A28A6107928AB108828B0109828B510A728
BA10B628BF10C628C310D528C810E428CC10F428D1100329D5101329DA102229DE103129E2104129E6105029EA105F29EE106F29F2107E29F6108E29FA109D29
FE10AC290211BC290611CB290911DA290D11EA291111F9291411082A1811182A1B11272A1E11372A2211462A2511552A2811652A2B11742A2E11832A3111932A
3411A22A3711B12A3A11C12A3D11D02A4011E02A4211EF2A4511FE2A48110E2B4A111D2B4D112C2B4F113C2B52114B2B54115B2B56116A2B5911792B5B11892B
5D11982B5F11A72B6111B72B6311C62B6511D52B6711E52B6911F42B6B11042C6D11132C6E11222C7011322C7211412C7311502C7511602C77116F2C78117F2C
7A118E2C7B119D2C7C11AD2C7E11BC2C7F11CB2C8011DB2C8211EA2C8311F92C8411092D8511182D8611282D8711372D8811462D8911562D8A11652D8B11742D
8C11842D8D11932D8E11A32D8F11B22D9011C12D9011D12D9111E02D9211EF2D9211FF2D93110E2E94111D2E94112D2E95113C2E95114C2E96115B2E97116A2E
97117A2E9711892E9811982E9811A82E9911B72E9911C72E9A11D62E9A11E52E9A11F52E9B11042F9B11132F9B11232F9B11322F9C11412F9C11512F9C11602F
9C11702F9D117F2F9D118E2F9D119E2F9D11AD2F9D11BC2F9E11CC2F9E11DB2F9E11EB2F9E11FA2F9E1109309E1119309E1128309E1137309E1147309F115630
9F1165309F1175309F1184309F1194309F11A3309F11B2309F11C2309F11D1309F11E0309F11F0309F11FF309F110E319F111E319F112D319F113D319F114C31
9F115B319F116B319F117A319F1189319F1199319F11A8319F11B8319F11C7319F11D6319F11E6319F11F5319F1104329F1114329F1123329F1132329F114232
9F1151329F1161329F1170329F117F329F118F329F119E329F11AD329F11BD329F11CC329F11DC329F11EB329F11FA329F110A339F1119339F1128339F113833
9F1147339F1156339F1166339F1175339F1185339F1194339F11A3339F11B3339F11C2339F11D1339F11E1339F11F0339F1100349F110F349F111E349F112E34
9F113D349F114C349F115C349F116B349E117A349E118A349E1199349E11A9349E11B8349E11C7349E11D7349E11E6349E11F5349D1105359D1114359D112435
9D1133359D1142359D1152359C1161359C1170359C1180359C118F359B119E359B11AE359B11BD359A11CD359A11DC359A11EB359911FB3599110A3698111936
98112936981138369711483697115736961166369611763695118536941194369411A4369311B3369311C2369211D2369111E1369011F136901100378F110F37
8E111F378D112E378C113D378B114D378B115C378A116B3789117B3788118A3786119A378511A9378411B8378311C8378211D7378111E6377F11F6377E110538
7D1115387B1124387A113338781143387711523875116138741171387211803870118F386F119F386D11AE386B11BE386911CD386811DC386611EC386411FB38
62110A3960111A395D1129395B11393959114839571157395411673952117639501185394D1195394B11A4394811B3394611C3394311D2394011E2393E11F139
3B11003A3811103A35111F3A32112E3A2F113E3A2C114D3A29115D3A26116C3A22117B3A1F118B3A1C119A3A1811A93A1511B93A1111C83A0E11D73A0A11E73A
0711F63A0311063BFF10153BFB10243BF710343BF310433BEF10523BEB10623BE710713BE310813BDF10903BDA109F3BD610AF3BD210BE3BCD10CD3BC910DD3B
C410EC3BC010FB3BBB100B3CB6101A3CB1102A3CAC10393CA810483CA310583C9E10673C9910763C9310863C8E10953C8910A53C8410B43C7E10C33C7910D33C
7410E23C6E10F13C6810013D6310103D5D101F3D57102F3D52103E3D4C104E3D46105D3D40106C3D3A107C3D34108B3D2E109A3D2810AA3D2210B93D1C10C83D
1510D83D0F10E73D0910F73D0210063EFC0F153EF50F253EEF0F343EE80F433EE20F533EDB0F623ED40F723ECE0F813EC70F903EC00FA03EB90FAF3EB20FBE3E
AB0FCE3EA40FDD3E9D0FEC3E960FFC3E8F0F0B3F880F1B3F810F2A3F7A0F393F730F493F6B0F583F640F673F5D0F773F560F863F4E0F963F470FA53F3F0FB43F
380FC43F310FD33F290FE23F220FF23F1A0F0140120F10400B0F2040030F2F40FC0E3F40F40E4E40EC0E5D40E50E6D40DD0E7C40D50E8B40CE0E9B40C60EAA40
BE0EBA40B70EC940AF0ED840A70EE8409F0EF740980E0641900E1641880E2541800E3441780E4441710E5341690E6341610E72414C0E8141360E9141210EA041
0C0EAF41F70DBF41E10DCE41CC0DDE41B80DED41A30DFC418E0D0C427A0D1B42660D2A42520D3A423E0D49422B0D5842170D6842050D7742F20C8742E00C9642
CE0CA542BC0CB542AB0CC4429A0CD342890CE342790CF242690C0243590C11434A0C20433B0C30432D0C3F431F0C4E43120C5E43050C6D43F80B7C43EC0B8C43
E00B9B43D50BAB43CA0BBA43BF0BC943B50BD943AB0BE843A20BF743990B0744910B1644890B2544810B35447A0B4444730B54446C0B6344660B7244610B8244
5B0B9144560BA044510BB0444D0BBF44490BCF44450BDE44410BED443E0BFD443B0B0C45380B1B45350B2B45330B3A45310B49452F0B59452D0B68452C0B7845
2B0B8745290B9645280BA645270BB545260BC445260BD445250BE345250BF345240B0246240B1146240B2146230B3046230B3F46230B4F46230B5E46230B6D46
230B7D46230B8C46230B9C46230BAB46230BBA46230BCA46230BD946230BE846230BF846230B0747230B1747230B2647230B3547230B4547230B5447230B6347
230B7347230B8247230B9147230BA147230BB047240BC047240BCF47240BDE47250BEE47250BFD47260B0C48270B1C48270B2B48280B3B48290B4A482B0B5948
2C0B69482E0B78482F0B8748310B9748330BA648360BB548380BC5483B0BD4483E0BE448410BF348450B0249490B12494D0B2149520B3049560B40495B0B4F49
610B5E49670B6E496D0B7D49730B8D497A0B9C49820BAB49890BBB49910BCA499A0BD949A30BE949AC0BF849B60B084AC00B174ACA0B264AD50B364AE10B454A
ED0B544AF90B644A050C734A130C824A200C924A2E0CA14A3C0CB14A4B0CC04A5A0CCF4A6A0CDF4A7A0CEE4A8A0CFD4A9B0C0D4BAC0C1C4BBD0C2C4BCF0C3B4B
E10C4A4BF30C5A4B060D694B190D784B2C0D884B3F0D974B530DA64B670DB64B7B0DC54B900DD54BA40DE44BB90DF34BCE0D034CE30D124CF80D214C0D0E314C
220E404C380E504C4D0E5F4C610E6E4C610E7E4C610E8D4C610E9C4C610EAC4C610EBB4C610ECA4C610EDA4C610EE94C610EF94C610E084D610E174D610E274D
610E364D610E454D610E554D610E644D610E744D610E834D610E924D610EA24D610EB14D610EC04D610ED04D610EDF4D610EEE4D610EFE4D610E0D4E610E1D4E
610E204E610E204E610E204E610E204E610E204E610E204E610E204E610E204E610E204E610E204E610E204E610E204E610E204E610E204E610E204E610E204E
610E204E610E204E610E204E610E204E610E204E610E204E610E204E610E204E610E204E610E204E610E204E610E204E610E204E610E204E610E204E610E204E
610E204E610E204E610E204E610E204E610E204E610E204E610E204E610E204E610E204E610E204E610E204E610E204E610E204E610E204E610E204E610E204E
610E204E610E204E610E204E610E204E610E204E610E204E610E204E610E204E610E204E610E204E610E204E610E204E610E204E610E204E610E204E610E204E
610E204E610E204E610E204E610E204E610E204E610E204E610E204E610E204E610E204E610E204E610E204E610E204E610E204E610E204E610E204E610E204E
610E204E610E204E610E204E610E204E610E204E610E204E610E204E610E204E610E204E610E204E610E204E610E204E610E204E610E204E610E204E610E204E
610E204E610E204E610E204E610E204E610E204E610E204E610E204E610E204E610E204E610E204E610E204E610E204E610E204E610E204E610E204E610E204E
610E204E610E204E610E204E610E204E610E204E610E204E610E204E610E204E610E204E610E204E610E204E610E204E610E204E610E204E610E204E610E204E
610E204E610E05000000020101000000040000002D01020004000000F00104000500000004010100000014000000FF0600000600F60200002400010002000000
0000C832C83202000000C8320000C8320200040000002D01040004000000F0010400070000001604DB21C832000000000500000004010D00000014000000FF06
00000600F602000024000100020000000000C832C83202000000C8320000C8320200040000002D01040004000000F0010400070000001604781EBF301E027708
08000000FA02000016000000FF000000040000002D01040005000000020101000000060800002503010443E3301952E3301961E3301971E3301980E3301990E3
30199FE33019AEE33019BEE33019CDE33019DCE33019ECE33019FBE330190AE430191AE4301929E4301939E4301948E4301957E4301967E4301976E4301985E4
301995E43019A4E43019B4E43019C3E43019D2E43019E2E43019F1E4301900E5301910E530191FE530192EE530193EE530194DE530195DE530196CE530197BE5
30198BE530199AE53019A9E53019B9E53019C8E53019D8E53019E7E53019F6E5301906E6301915E6301924E6301934E6301943E6301952E6301962E6301971E6
301981E6301990E630199FE63019AFE63019BEE63019CDE63019DDE63019ECE63019FBE630190BE730191AE730192AE7301939E7301948E7301958E7301967E7
301976E7301986E7301995E73019A5E73019B4E73019C3E73019D3E73019E2E73019F1E7301901E8301910E830191FE830192FE830193EE830194EE830195DE8
30196CE830197CE830198BE830199AE83019AAE83019B9E83019C9E83019D8E83019E7E83019F7E8301906E9301915E9301925E9301934E9301943E9301953E9
301962E9301972E9301981E9301990E93019A0E93019AFE93019BEE93019CEE93019DDE93019EDE93019FCE930190BEA30191BEA30192AEA301939EA301949EA
301958EA301967EA301977EA301986EA301996EA3019A5EA3019B4EA3019C4EA3019D3EA3019E2EA3019F2EA301901EB301911EB301920EB30192FEB30193FEB
30194EEB30195DEB30196DEB30197CEB30198BEB30199BEB3019AAEB3019BAEB3019C9EB3019D8EB3019E8EB3019F7EB301906EC301916EC301925EC301935EC
301944EC301953EC301963EC301972EC301981EC301991EC3019A0EC3019AFEC3019BFEC3019CEEC2119DEEC0C19EDECF618FCECE1180CEDCC181BEDB7182AED
A2183AED8D1849ED781858ED631868ED4F1877ED3B1887ED271896ED1318A5EDFF17B5EDEC17C4EDD917D3EDC617E3EDB417F2EDA21702EE901711EE7F1720EE
6E1730EE5D173FEE4C174EEE3C175EEE2D176DEE1E177CEE0F178CEE00179BEEF216ABEEE516BAEED816C9EECB16D9EEBF16E8EEB316F7EEA71607EF9C1616EF
911626EF871635EF7D1644EF741654EF6B1663EF631672EF5A1682EF531691EF4B16A0EF4416B0EF3E16BFEF3716CFEF3116DEEF2C16EDEF2716FDEF22160CF0
1D161BF019162BF015163AF012164AF00E1659F00B1668F0081678F0061687F0031696F00116A6F0FF15B5F0FD15C4F0FC15D4F0FA15E3F0F915F3F0F81502F1
F71511F1F61521F1F51530F1F5153FF1F4154FF1F4155EF1F3156EF1F3157DF1F3158CF1F3159CF1F215ABF1F215BAF1F215CAF1F215D9F1F215E8F1F215F8F1
F21507F2F21517F2F21526F2F21535F2F21545F2F21554F2F21563F2F21573F2F21582F2F21592F2F215A1F2F215B0F2F215C0F2F215CFF2F215DEF2F215EEF2
F315FDF2F3150CF3F3151CF3F3152BF3F4153BF3F4154AF3F41559F3F51569F3F61578F3F61587F3F71597F3F815A6F3FA15B5F3FB15C5F3FC15D4F3FE15E4F3
0016F3F3021602F4041612F4071621F40A1630F40D1640F410164FF413165FF417166EF41B167DF420168DF424169CF42916ABF42F16BBF43416CAF43B16D9F4
4116E9F44816F8F44F1608F5571617F55E1626F5671636F5701645F5791654F5821664F58C1673F5971683F5A21692F5AD16A1F5B916B1F5C516C0F5D116CFF5
DE16DFF5EC16EEF5F916FDF508170DF616171CF625172CF635173BF645174AF655175AF6651769F6761778F6881788F6991797F6AB17A7F6BD17B6F6D017C5F6
E317D5F6F617E4F60918F3F61D1803F7311812F7451821F7591831F76E1840F7831850F797185FF7AC186EF7C1187EF7D7188DF7EC189CF70119ACF71719BBF7
2C19CBF73719DAF73E19E9F74619F9F74E1908F8561917F85D1927F8651936F86D1945F8751955F87D1964F8841974F88C1983F8941992F89B19A2F8A319B1F8
AB19C0F8B319D0F8BA19DFF8C219EFF8C919FEF8D1190DF9D9191DF9E0192CF9E8193BF9EF194BF9F7195AF9FE1969F9061A79F90D1A88F9151A98F91C1AA7F9
231AB6F92B1AC6F9321AD5F9391AE4F9411AF4F9481A03FA4F1A12FA561A22FA5D1A31FA641A41FA6B1A50FA721A5FFA791A6FFA801A7EFA871A8DFA8E1A9DFA
951AACFA9C1ABCFAA21ACBFAA91ADAFAB01AEAFAB61AF9FABD1A08FBC31A18FBCA1A27FBD01A36FBD71A46FBDD1A55FBE31A65FBEA1A74FBF01A83FBF61A93FB
FC1AA2FB021BB1FB081BC1FB0E1BD0FB141BE0FB1A1BEFFB201BFEFB261B0EFC2B1B1DFC311B2CFC371B3CFC3C1B4BFC421B5AFC471B6AFC4D1B79FC521B89FC
